:020000040800F2
:10000000E83B00209D0100082B4F0008513F0008ED
:10001000294F0008E11400081583000800000000C3
:10002000000000000000000000000000FB75000858
:10003000BB1E000800000000F3600008897F000874
:10004000B7010008B7010008B7010008B7010008B0
:10005000B7010008B7010008B7010008B7010008A0
:10006000B7010008BB220008C1220008B701000840
:10007000B7010008B7010008B7010008B701000880
:10008000B7010008B7010008B7010008B701000870
:10009000B7010008B7010008B7010008C72200082F
:1000A000B7010008B7010008B7010008B701000850
:1000B00061800008B7010008B7010008B701000817
:1000C000B7010008B7010008B7010008B701000830
:1000D000B7010008B7010008B7010008B701000820
:1000E000B7010008B7010008B7010008B701000810
:1000F000B7010008B7010008B7010008B701000800
:10010000B7010008B7010008B7010008B7010008EF
:10011000B7010008B7010008BD800008C9800008C9
:10012000B7010008B7010008B7010008B7010008CF
:10013000B7010008B7010008B7010008B7010008BF
:10014000B7010008B7010008B7010008B7010008AF
:10015000B7010008B7010008B7010008B70100089F
:10016000B7010008B7010008B7010008B70100088F
:10017000B7010008B7010008B7010008000000003F
:10018000B7010008B7010008DFF80CD000F062FAF0
:100190000048004739830008E83B002006488047B4
:1001A00006480047FEE7FEE7FEE7FEE7FEE7FEE75C
:1001B000FEE7FEE7FEE7FEE74D8000088901000844
:1001C0002DE9F05F0546002092469B46884606468C
:1001D000814640241BE0284641464746224600F01F
:1001E00070F853465A46C01A914110D3114618462A
:1001F000224600F057F82D1A67EB01084F462246B9
:100200000120002100F04EF817EB00094E41201E9E
:10021000A4F10104DFDC484631462A464346BDE8E6
:10022000F09F40EA01039B0703D009E008C9121FB1
:1002300008C0042AFAD203E011F8013B00F8013BA0
:10024000521EF9D27047D2B201E000F8012B491ECC
:10025000FBD270470022F6E710B513460A46044663
:100260001946FFF7F0FF204610BD421C10F8011B95
:100270000029FBD1801A704730B50B46014600209B
:100280002022012409E021FA02F59D4205D303FA58
:1002900002F5491B04FA02F52844151EA2F10102D9
:1002A000F1DC30BD202A04DB203A00FA02F1002004
:1002B00070479140C2F1200320FA03F319439040A4
:1002C0007047202A04DB203A21FA02F0002170470F
:1002D00021FA02F3D040C2F12002914008431946AE
:1002E00070472DE9FE4F804681EA0300C00F0C469F
:1002F000009021F0004123F00045B8EB0200A94135
:1003000005D24046214690461C460B46024623F045
:100310000040104347D0270DC7F30A00C3F30A512A
:100320000290401A019040286BDAC3F3130040F4A6
:10033000801B0098924620B10023D2EB030A63EBA6
:100340000B0B01985946C0F140025046FFF7AAFF37
:1003500006460D4650465946019A00F093F910EBB7
:1003600008006141002487EA115284EAE7731A43C6
:1003700040D0009A62B3019A012A4FEA075215DC75
:10038000001B61EB02014FF0004202EA0752CDE987
:100390000042001C41F5801132462B4600F093F9D3
:1003A00003B0BDE8F08F40462146F9E7001B61EB42
:1003B0000201001C41F5801300185B412018A2F5D2
:1003C000001747EB030140EAD570B6196D4111E003
:1003D0006D084FEA360645EAC0754FEA0752001B22
:1003E00061EB0201001C41F5801149084FEA300021
:1003F0000019514132462B4603B0BDE8F04F00F0E2
:1004000053B90098012240000023D0EB020263EBB5
:10041000E073009821464FEAE074B8EB000061EB0E
:100420000401E9E783F000435BE781F0004158E70E
:100430002DE9FE4F81EA030404F0004421F000415D
:1004400000944FF0000B23F0004350EA01045ED00B
:1004500052EA03045BD0C3F30A54C1F30A552C4497
:10046000A4F2F3340194A0FB0254C1F3130141F44C
:100470008011C3F3130343F4801301FB024400FB18
:10048000034E840A970A44EA815447EA8357A4FB3F
:10049000076802958D0A05FB07854FEA932C04FB3C
:1004A0000C542705029D4FEA065847EA1637B5EB6C
:1004B00008056EEB070C870E920E47EA811742EA99
:1004C0008312A7FB0201B6EB0B0164EB00042B0DBA
:1004D00043EA0C335E1844EB1C50DA465146E7FB06
:1004E0000201C5F313044FEA0B3343EA14534FEAF6
:1004F0000432019C43EA0603A4F10C040294009C1C
:10050000CDE900B400F0DFF803B0BDE8F08F0020C3
:100510000146F9E72DE9F04D81EA030404F0004BB0
:1005200021F0004514464FF0000A23F0004150EA44
:10053000050220D054EA01021DD0C5F30A57024635
:10054000C5F31303C1F31300C1F30A5640F4801539
:1005500043F48013A7EB0608101BD64608F2FD38BB
:1005600073EB050002D308F1010801E092185B412A
:10057000B8F1000F03DA00200146BDE8F08D00203D
:100580004FF48011064684460EE0171B73EB0507F7
:1005900005D3121B63EB050306434CEA010C490823
:1005A0004FEA300092185B4150EA0107EDD152EA60
:1005B000030012D082EA040083EA0501084305D053
:1005C000101BAB4106D20122002306E000224FF0AF
:1005D000004302E06FF0010253101AEB06004CEBEF
:1005E000085110EB0A0041EB0B01BDE8F04D00F0A3
:1005F0005BB8C1F30A52C1F3130140F2FF3341F477
:1006000080119A4202DA00200146704740F23343DB
:100610009A42A2F2334202DC5242FFF752BEFFF787
:1006200041BE000030B5041E71F1000404DB4FF040
:100630000044404264EB0101141E73F1000405DB29
:100640001C464FF00043524263EB0403994208BF3B
:10065000904230BD1CB509480090094801900546FC
:10066000009C06E0E06840F0010394E8070098472A
:100670001034AC42F6D3FFF78BFD00000C9B000852
:100680002C9B0008202A06DBCB17203A41FA02F007
:1006900043EAE07306E041FA02F3D040C2F12002DF
:1006A000914008431946704710B5141E73F10004B9
:1006B00008DA401C41F1000192185B411A4301D154
:1006C00020F0010010BD2DE9F04D92469B4611B17E
:1006D000B1FA81F202E0B0FA80F220329046FFF7E0
:1006E000E1FD04460F4640EA0A0041EA0B01534689
:1006F0005A46084313D0114653EA010019D0C8F1F5
:1007000040025046FFF7DDFD05460E46504659466D
:100710004246FFF7C7FD084305D0012004E020460C
:100720003946BDE8F08D0020054346EAE0762C43CB
:1007300037430A986305E40AA0EB08000022FD0A8B
:1007400044EA47540A3002D500200146E9E7010592
:1007500010196941DDE9084500196941BDE8F04D0E
:10076000A2E770B58C1810F8015B15F0070301D1F2
:1007700010F8013B2A1106D110F8012B03E010F804
:10078000016B01F8016B5B1EF9D12B0705D4002327
:10079000521E0DD401F8013BFAE710F8013BCB1AC9
:1007A000921C03E013F8015B01F8015B521EF9D5BE
:1007B000A142D8D3002070BD2DE9F04F85B040F2A2
:1007C000206840F2D633C2F20008C2F200034FF0B4
:1007D000FF3240F28C4A98F800701A80C2F2000A88
:1007E00001225FEAC0698AF800200BD400F00F02F2
:1007F000012A4FF00F0218BF17F0100303D005B005
:10080000BDE8F08FEF2200F00F0B4BEA07143A40DF
:10081000E7B20220812F4FF00006019188F80020F6
:1008200000F33080A7F11201362900F23980DFE8A9
:1008300001F03437373737373737373737373737C8
:10084000373734371C373737373737373737373756
:100850003737373737373737373737373737373728
:10086000373734372F3737372F0040F22C6040F2BC
:100870002E61C2F20000C2F2000100F07FFC0646C9
:1008800070B905E0822F08D0842F01D0882F07D1BE
:1008900040F22A60C2F20000007801F0BBF8064680
:1008A000002E4FD098F80000022815D004280FD051
:1008B000082840F0D48000F011FE40F28F40C2F2D0
:1008C00000000021017040F29140C2F2000001706E
:1008D00000F000FE07F0D4F9162E40F0BD8003F0C2
:1008E000B3FF00F0F9FD4FF480700DF10A05ADF88B
:1008F0000A00284640F60601022203F0BBF900BFB9
:10090000284640F60601022203F04CF9BDF80A0021
:10091000C005F5D54FF4807003ADADF80C00284646
:1009200040F60E01022203F0A5F900BF284640F66A
:100930000E01022203F036F9BDF80C00C005F5D512
:1009400001208AE06FF0100040F2226150FA84F03A
:10095000C2F20001002277280A8000F213821325D8
:10096000DFE810F0C3017A017E0078001002100267
:100970001002780010021002100210021002100281
:10098000100210025E01C9017800DC0110021002A1
:100990001002780010021002100210021002100261
:1009A0001002100263017800100278001002100299
:1009B0001002780010021002100210021002100241
:1009C000100210025201BB017800C901100210028E
:1009D0001002040210021002100210021002100293
:1009E0001002100210021002100210021002100277
:1009F0001002100210021002100210021002100267
:100A00001002100210021002100210021002100256
:100A10001002100210021002100210021002100246
:100A20001002100210021002100210021002100236
:100A30001002100210021002100210021002100226
:100A4000100210023E01A70178006A011002100294
:100A50001002C901112503E0022088F80000354684
:100A6000FF2D1CD140F29240C2F200000121017022
:100A70006FF0110040F2226150FA84F2C2F20001DC
:100A8000E0B2022A08805AD340F2D6334828C2F294
:100A9000000301D0242859D142F2283057E098F8B9
:100AA000000000F00F01594515D140F29240C2F20A
:100AB000000000210DF112040170ADF81210204663
:100AC0004FF49A71022203F0D5F898F80000ADF8BF
:100AD000120020467CE0019F55EA07014DD040EA14
:100AE0000B00000749D540F29144C2F2000420787F
:100AF00040B100F0F3FC40F28F40C2F20000002150
:100B00000170217040F22E60C2F20000008858B3DC
:100B10004FF480700DF10E06ADF80E00304640F631
:100B20001601022203F0A6F8304640F61601022212
:100B300003F038F8BDF80E00C005F5D51DE040F211
:100B4000D6334FF4FA60C2F2000300E0C82049F641
:100B50009911CFF6FF7141438A1402EBD171084419
:100B6000188005B0BDE8F08F40F22C60C2F20000A2
:100B7000008810B1032001F0A1F94FF6FF705DB1BC
:100B800098F80010082904BF042188F8001098F88C
:100B9000001041F0100B04E0002F1CBF0BF1100BF4
:100BA0003D4640F29241C2F200010022854288F89F
:100BB00000B00A70ADF8105005D004A84FF49A7137
:100BC000022203F057F898F80000ADF8100004A8CE
:100BD0004FF49871022203F04DF805B0BDE8F08F94
:100BE00000F07CFC054640F28F40C2F2000000217C
:100BF000017040F29140C2F20000002D01708AF8AD
:100C000000107FF42DAF412400F064FC054607F08E
:100C100037F80020002D8AF800007FF421AF21244E
:100C200003F012FE00F058FC054640F2A340C2F269
:100C300000000021017013E700F050FC40F28F40EB
:100C4000C2F200000021017040F29140C2F20000A7
:100C500001708AF8001002E707F042FB40F2D23040
:100C6000C2F200000078002808BF5126002E7FF451
:100C7000F6AE03F095FD054660B900208AF8000045
:100C800000F024FC054628B940F29740C2F200006B
:100C900001210170002D3FF4E3AEFF2D3FF4E0AEE3
:100CA0009AF80000002808BF00F016FC03F0CCFD05
:100CB000D6E600F013FC064640F28F40C2F2000078
:100CC0000021017040F29140C2F20000002E01703C
:100CD0008AF800107FF4C3AE422400F0FBFB06F05C
:100CE000CFFF00208AF80000B9E640F2A340C2F22C
:100CF000000000210170B9F1000F02D5384600F064
:100D000009FA98F8000010F00C0F48D040F22E605D
:100D1000C2F200000088B8B302203CE006F0F4FC08
:100D20000546A0B940F69C360020C2F200068AF8BB
:100D30000000304600F0C4FB054640B9308806F09C
:100D4000BDFC40F29040C2F2000001210170002D74
:100D50003FF486AEFF2D3FF483AE9AF800000028E2
:100D600008BF00F0B7FB06F08BFF79E640F2954034
:100D7000C2F200000078A0B140F6A430C2F2000038
:100D8000058830E012256BE640F22C60C2F20000CC
:100D9000008820B1032001F099FAFE2560E6FE25C7
:100DA0005EE640F28E40C2F20000007858B140F298
:100DB0001E60C2F20000C821018040F21C60C2F235
:100DC00000000021018040F65830C2F200000021EE
:100DD000018580F8401040F61430C2F20000FF2573
:100DE000018580F8401065B900208AF8000000F005
:100DF0006FFB054628B940F29140C2F20000012184
:100E00000170002D3FF42CAEFF2D3FF429AE9AF86F
:100E10000000002808BF00F061FB40F28F40C2F2E2
:100E200000000021017040F29140C2F20000017008
:100E300016E6000070B582B040F29244C2F200049F
:100E40002078002800F0648140F2D630C2F2000021
:100E500040F222660188C2F200063088002941D0A3
:100E6000A0F1120102296CD3242800F093804828B5
:100E700040F0828040F28C40C2F2000001780029EC
:100E80007AD040F28E41C2F200010978002900F0C8
:100E9000BE8040F21E61C2F20001B1F900300025AF
:100EA000012BC0F20B8140F21C62C2F20002B2F9C7
:100EB0000060B3424FF0000600F301810D80158001
:100EC000057000F005FBFF2800F0F880002800F016
:100ED000B38000F003FB40F28F40C2F20000002517
:100EE0000570E6E0A0F1120102294FEA101545D382
:100EF00024286DD0482840F0E18040F28E40C2F2B4
:100F000000000078002800F0A08040F28D40C2F27E
:100F100000000078002800F0A78040F22E6140F227
:100F20008F40C2F20001C2F20000098800781A2640
:100F3000090418BF1B261A21002818BF0E460020DE
:100F40009DE040F28C40C2F20000017800250029AB
:100F500000F0B480057000F0B9FAFF2800F0AE8010
:100F600000284ED140F297403288C2F200000121A1
:100F7000017002F00F05A1E000259FE040F28C40D7
:100F8000C2F200000078002808BF00F0A5FA03F0C4
:100F90005BFC28E040F28C40C2F2000001780025A2
:100FA000002900F08B80057040F69C30C2F20000F2
:100FB00000F086FAFF2800F0818000284ED140F230
:100FC0009040C2F20000012101700026042576E065
:100FD00040F28C40C2F200000078002808BF00F008
:100FE00079FA06F04DFE40F29540C2F2000040F65C
:100FF000A4310078C2F200010E88002808BF012643
:101000005DE000F069FA03F01FFC002556E040F2B5
:101010002E61C2F20001098840F28F46C2F200063A
:101020004FF0000511B13178002947D0057000F06C
:101030004FFAFF2842D0C0BB40F29140C2F20000FC
:10104000012101700026082539E040F22E60C2F22D
:101050000000008858B11B26002010E000F03AFA8A
:1010600006F00EFE002529E02D26002007E040F2C4
:101070009141C2F200010120002608250870F0B954
:1010800040F28C40C2F200000078002808BF00F057
:1010900025FA40F28F40C2F200000021017040F2B8
:1010A0009140C2F20000017009E000F017FA00253B
:1010B000357040F29140C2F200000570002628060B
:1010C00026D00020207040F220643004C2F20004D8
:1010D00018BF45F010052078E9B28842B0B24FF64B
:1010E000FF71ADF8066018BF2570884206D00DF17B
:1010F00006004FF49A71022202F0BCFD20784FF4F2
:101100009871ADF806000DF10600022202F0B2FD62
:1011100002B070BD81B0ADF8020001B070470000B0
:1011200080B582B001F0FEF840F24231C2F2000117
:101130000091488001F0F2F80099888001F0EAF807
:10114000009AD08050889188D28804F02DFE0098B3
:10115000408800F0010241F20000C4F20200019058
:10116000012101F0D9FA009901984988C1F34002A0
:10117000022101F0D1FA02B080BD000080B58CB030
:101180000B900A9100200390ADF82600ADF82400E2
:10119000ADF82200ADF820000790ADF81A000590D8
:1011A000ADF81200ADF82000FFE7BDF8200040F2D6
:1011B000B231C2F20001098888424BDAFFE7BDF87C
:1011C000201040F2B230C2F2000000EB4100408833
:1011D00003F0FAFF0790079870B3FFE7079880695C
:1011E0000088ADF81A000020ADF81200FFE7BDF846
:1011F0001200BDF81A1088421DDAFFE707998869C6
:101200000290BDF812000130C0B203F01FFF01468A
:101210000298090900EB4100059005980178BDF896
:1012200022000844ADF82200FFE7BDF812000130AB
:10123000ADF81200DBE706E00020ADF82200252023
:10124000ADF8260006E0FFE7BDF820000130ADF85C
:101250002000AAE7BDF822000730C008ADF8220040
:10126000BDF8260000285AD1FFE70020ADF8200085
:10127000FFE7BDF8200040F2BC31C2F2000109884E
:1012800088424BDAFFE7BDF8201040F2BC30C2F2D2
:10129000000000EB4100408803F096FF079007989C
:1012A00070B3FFE7079880690088ADF81A00002046
:1012B000ADF81200FFE7BDF81200BDF81A10884221
:1012C0001DDAFFE7079988690190BDF81200013027
:1012D000C0B203F0BBFE01460198090900EB4100D2
:1012E000059005980178BDF824000844ADF8240065
:1012F000FFE7BDF812000130ADF81200DBE706E0B1
:101300000020ADF824002420ADF8260006E0FFE719
:10131000BDF820000130ADF82000AAE7FFE7BDF8D6
:1013200024000730C008ADF82400BDF824000B9954
:101330000880BDF822000A990880BDF826000CB08C
:1013400080BD000083B002900020ADF80600029935
:101350000091ADF80600FFE7BDF8060040F2BC3191
:10136000C2F200010988884228DAFFE7BDF80610BA
:1013700040F2BC30C2F2000000EB41004088B0F502
:10138000D05F14D1FFE740F24230C2F20000418842
:10139000009A931C009311808188009A931C0093FB
:1013A0001180C08800998A1C00920880FFE7FFE73F
:1013B000BDF806000130ADF80600CDE703B0704778
:1013C00080B586B005900020ADF812000599039114
:1013D000ADF81200FFE7BDF8120040F2B231C2F2E0
:1013E0000001098888422EDAFFE7BDF8121040F2AA
:1013F000B230C2F2000000EB4100408841F20161CE
:10140000884219D1FFE70398811C0391008840F2BC
:101410004A31C2F2000148800398821C039200887E
:1014200088800398821C03920088C8800398821CDD
:10143000039200880881FFE7FFE7BDF81200013042
:10144000ADF81200C7E740F24A33C2F2000302933C
:10145000B3F90200B3F90410DA881B8900F088FFA1
:10146000029BB3F90200B3F90410DA881B8904F077
:101470007FFC0298C08840F2B031C2F200010988B6
:1014800088421AD0FFE740F24A30C2F20000C18819
:1014900040F2B032C2F200021180B0F90210B0F98D
:1014A0000420C3880089EC46CCF8000049F6E2200D
:1014B000C0F6000007F024FAFFE706B080BD000088
:1014C00081B00090002001B07047000000207047FC
:1014D00000207047002070470020704700207047B0
:1014E000FEE7000010B540F24464C2F20004206838
:1014F00028B1002102F0F4FF0020206010BD802000
:1015000007F0C4FE78B140F27C41C2F200018A8942
:101510008B6882810A68496883604160026005F0D7
:10152000C9FA002010BD072010BD000040F2DC30D9
:10153000C2F200000068704740F24460C2F200004E
:101540000021016040F23060C2F20000018070476B
:101550002DE9F04F81B040F24C64C2F200042668DD
:10156000002E51D040F6AE3840F6DC3940F6C83A8D
:1015700040F25C6540F2A24BC2F20008C2F20009E0
:10158000C2F2000AC2F20005C2F2000BB8F8000075
:1015900099F80010DAF800202B689BF8007000978B
:1015A000B047FF2830D040F6DB37C2F20007397869
:1015B000CA1E022A17D3012912D0022918D140F2DB
:1015C0005461C2F20001096851B10646084607F0AD
:1015D00035FE40F2546230460021C2F20002116032
:1015E0000021002202E0DAF800102A6805F0BAFBB8
:1015F00000203870A8F8000089F80000CAF8000040
:1016000028608BF80000206001B0BDE8F08F00007A
:1016100010B540F24C10C2F2000001894FF6FF7C79
:1016200040F2DC3EC2F2000E00206145CEF8000020
:101630003AD040F24C13C2F2000300BFDEF8004083
:10164000C4B12089884207D90020C3E9000423607F
:10165000CEF8003022E000BF2089884210D0224618
:1016600012D85468002CF7D100205360C3E9002041
:1016700014E000BF0020CEF80030C3E900000DE008
:101680000120002161B90FE01068C3E90002106871
:10169000002818BF43601360002000BF012119B16A
:1016A000198E28336145C9D1002844D140F20C007D
:1016B000C2F200000189614504BF002010BD40F264
:1016C0000C03C2F2000304E0198E2833614508BF01
:1016D00010BDDEF80040BCB12089884206D9002048
:1016E000C3E900042360CEF8003021E0208988425D
:1016F00010D0224613D85468002CF7D10020536034
:10170000C3E9002014E000BF0020CEF80030C3E998
:1017100000000DE0012000210029D5D10BE0106868
:10172000C3E900021068002818BF4360136000205E
:1017300001210029C8D110BD70B582B040F65830E3
:101740004AF22013C2F200002021002644F21F02B8
:10175000C0F20703C0E900168281C0E9043686831F
:101760000662866280F8406040F61430C2F20000E3
:10177000C0E900168281C0E904368683066286626B
:1017800080F8406040F2A340C2F200000670FFF70C
:101790003FFF50B340F2DC30C2F20000016811B3E9
:1017A0004FF0000C12E000BFD3E90052002D18BF2B
:1017B0006A60002A18BF1560C3F800C00568C3F846
:1017C00004C02D89AC4208BF026061B103680A46BB
:1017D0004968002BF9D012891C899442E4D05B68D7
:1017E000002BF9D1F1E70021016040F6DB30C2F2B5
:1017F0000000067040F2A240C2F20000067040F6FF
:10180000AE30C2F20000068040F6DC30C2F20000CA
:10181000067040F6C830C2F20000066040F25C601C
:10182000C2F20000066040F24C60C2F200000660A6
:1018300040F25460C2F20000066001A808210422B0
:10184000019602F0AFF99DF8040000070FD440F2B2
:101850008A40C2F200000121017040F6BC30C2F2A1
:1018600000004FF41161042202F09CF905E040F2FF
:101870008A40C2F200000021017040F6B430C2F28A
:1018800000004FF47A61016002B070BDC1884FF072
:10189000FF3202EB1132072A0CD80421DFE802F0F4
:1018A00004080404040404060846704705F002B95D
:1018B00004F074BC052108467047000010B582B0E2
:1018C00040F28A40C2F200000078D0B140F6D03435
:1018D000C2F2000420684FF41161019001A80422B3
:1018E00002F060F940F6BC31C2F2000101980B68C9
:1018F0006268984220603CBF0132C4E9000208607F
:1019000008E040F6D030C2F200004FF41161082226
:1019100002F048F940F6B430C2F200000021016044
:1019200002B010BD40F65830C2F20000418D40F2C6
:101930009033C2F20003002918BF0121028D1B89D8
:1019400092B29BB29A424FF0000240F6143C88BF1C
:1019500001221143C2F2000C80F84010BCF82A109A
:10196000BCF828000022002980B218BF012198424B
:1019700088BF012241EA02008CF840007047000055
:1019800010B582B040F2D030C2F20000008840F2C0
:101990009144C2F20004F0B10020ADF806000DF150
:1019A00006004FF48861022202F0FCF8BDF8060040
:1019B000C00710D140F22E60C2F20000008850B182
:1019C000207810B104201B2120E040F28F40C2F2A9
:1019D00000000021017040F28E40C2F20000007849
:1019E00068B1207858B140F28D40C2F20000007812
:1019F00038B140F2A140C2F20000007820B102B03C
:101A000010BD04202C2101E004201A21FEF7D4FE91
:101A100002B010BD2DE9F04140F22861C2F2000190
:101A2000098841F6FF7291423CBF1420BDE8F08165
:101A300040F2EA35C2F20005044628464FF4006140
:101A4000082202F0AFF8E888C00702D1162700206C
:101A500017E0A888162700F00E0006284FF00000B7
:101A60000FD169884FF6A372813989B2914208D3A8
:101A70002988B1F5805F04D3B1F5005F3CBF012038
:101A8000002710B3284640F60801082202F08AF821
:101A9000E888C00702D14FF0160817E0A8884FF079
:101AA000160800F00E00022810D168884FF6A371C6
:101AB000813880B2884209D32888B0F5805F05D389
:101AC0000021B1EB503F18BF1627B846042C55D360
:101AD000B8F1000F52D140F28B47C2F2000701204B
:101AE0003870284640F61801082202F05BF8E988B1
:101AF0006A882888C90702D00AB904213AE059B394
:101B0000442A4FF0040135D840F22C63C2F200039E
:101B10001B889A422ED16BB3AA8812F00C0F29D1E0
:101B200040F22061C2F200010978022904D100F4D8
:101B30007043B3F5805F0AD002294FF0040119D039
:101B400040F22463C2F200031B88984212D190072E
:101B500044BF002038700CE040F22C60C2F200005C
:101B60000088000418BF4FF00408002A18BF4FF087
:101B700004084146002918BF1E218846032C5BD368
:101B8000B8F1000F58D128464FF40161082202F045
:101B900009F8E9886A882888C90702D00AB90421A7
:101BA00046E0B9B3442A4FF0040141D840F22E6315
:101BB000C2F200031B889A423AD1CBB3AA8802F042
:101BC0000C010429EBD140F22061C2F20001097836
:101BD000022904D100F47043B3F5805F0AD00229D2
:101BE0004FF0040124D040F22663C2F200031B88A8
:101BF00098421DD140F2A441C2F38010C2F200010C
:101C00009207087013D540F28B40C2F20000002109
:101C100001700CE040F22E60C2F200000088000467
:101C200018BF4FF00408002A18BF4FF004084146BF
:101C3000002918BF1D218846B8F1000F18D140F2C5
:101C40002A67C2F200073878844211D240F2E036A7
:101C5000C2F20006E0B2C00000F50061284608228A
:101C600001F0A0FFE8880134308038788442F1D355
:101C70004046BDE8F0810000222900F28980002260
:101C8000DFE801F057123C5986868686868686866E
:101C900086868686868686868686868686868686E4
:101CA000868686868686740040F22E61C2F2000126
:101CB000098841F63242904209D141B140F658328A
:101CC000C2F200029289920744BF0020704741F699
:101CD000334290425CD140F61430C2F20000808959
:101CE000800755D5002953D140F22C60C2F2000084
:101CF000008800281CBF0020704749E041F63341AE
:101D000088420ED041F63241884241D140F65831E6
:101D1000C2F20001898949070BD441F63341884258
:101D200036D140F61430C2F200008089400758BF17
:101D300012221046704741F6334188420ED041F6D8
:101D40003241884224D140F65831C2F200018989DB
:101D50000907EED441F63341884219D140F61430D8
:101D6000C2F2000080890007E3D411E041F633415C
:101D700088420DD140F61430C2F2000080898007FD
:101D800006D540F22E60C2F2000000880028D0D1B3
:101D90001222104670470000B0B54EF2001CCEF281
:101DA000000C4FF4007ECCF880E0BFF34F8F40F280
:101DB0008E40BFF36F8FC2F200000078002860D021
:101DC00040F29040C2F200000078002859D040F262
:101DD000E431C2F2000140F2E232C2F200020988AC
:101DE00010884B1E84B29DB20023A54228BF012358
:101DF00004D38C423EBF01301080012340F28D425B
:101E0000C2F20002137083B140F2E830C2F2000067
:101E1000008850B140F2E631C2F200010B888342E3
:101E200027BF00201070581C0880107800B340F6BF
:101E3000583040F29031C2F20000C2F20001008D31
:101E40000989884220D240F21E61C2F20001B1F934
:101E5000001040F2A140C2F20000012201290270EC
:101E60000FDB40F21C60C2F200000188013120E06B
:101E700040F2A140C2F20000017800291CBF0021FD
:101E80000170CCF800E0B0BD40F2A140C2F2000009
:101E900001780029F5D040F21E61C2F20001B1F9CB
:101EA00000200021012A0170EBDB40F21C60C2F22D
:101EB00000000180CCF800E0B0BD7047B0B582B042
:101EC000C0004FF4807100F606040DF10605ADF870
:101ED000061028462146022201F0CCFE2846214663
:101EE000022201F05FFEBDF80600C005F6D502B083
:101EF000B0BD000040F29240C2F20000007848B14C
:101F000040F2D630C2F20000B0F900100129A4BF9F
:101F10000139018080B5FFF73FFF40F28A40C2F2ED
:101F20000000007840F6B43C40F6D031C2F2000C1C
:101F3000C2F20001BDE8804030B10A684FF640337C
:101F4000CFF6E1739A420BD8D1E9002344F2402046
:101F5000C0F20F00801843F10002C1E9000203E063
:101F60004FF47A60CCF80000DCF800000130CCF8C7
:101F7000000070472DE9F04784B00DF106044FF0E2
:101F80000008204604210222ADF8068001F00AFE76
:101F90009DF8070040F22A69C2F2000989F80000A2
:101FA00020460621022201F0FDFDBDF8060040F6A4
:101FB000FF7101EB802040F22861C2F2000108802D
:101FC00002A840F202510222ADF8088001F0EAFDB9
:101FD000BDF8080099F8001000F4C050B0FA80F085
:101FE000002940F2D2314FEA5010C2F200010870CD
:101FF0001FD000264FF4807A40F606070DF10A0440
:1020000047EAC60085B2204629460222ADF80AA05A
:1020100001F030FE20462946022201F0C3FDBDF842
:102020000A00C005F6D5013699F80000B1B2814228
:10203000E6D302F055F940F28C40C2F2000080F87D
:10204000008040F29240C2F2000080F8008040F22E
:102050008F40C2F2000080F8008040F29140C2F24E
:10206000000080F8008040F29040C2F2000080F84A
:10207000008040F2A440C2F2000080F8008040F2EC
:10208000D030C2F20000A0F8008040F2E230C2F28C
:102090000000A0F8008040F2E430C2F20000A0F896
:1020A000008040F2E630C2F20000A0F8008040F26A
:1020B000E830C2F20000A0F8008040F28E40C2F288
:1020C000000080F8008040F29540C2F2000080F8E5
:1020D000008040F6A430C2F20000A0F8008040F674
:1020E0009C30C2F20000A0F8008040F22E60C2F2E4
:1020F0000000A0F8008040F22C60C2F2000040F224
:102100002065A0F80080C2F20005012003AC287011
:1021100020464FF49A710222ADF80C8001F0AAFD1E
:1021200028784FF49871ADF80C002046022201F097
:10213000A1FD40F22260C2F20000A0F8008040F24F
:102140009340C2F2000080F80080FFF7F5F90DF12E
:102150000E0420464FF40171022201F023FD4EF2DD
:102160000015CEF200054FF40076ADF80E80C5F8EC
:102170008060BFF34F8F20464FF401710222BFF3FE
:102180006F8F01F077FD2E6004B0BDE8F08700008E
:1021900070B582B00020ADF806000120ADF8040053
:1021A00002F080FA40F29745C2F20005287828B183
:1021B00001A840F60E01022201F0F4FC01F0C2FD7C
:1021C00040F292460446C007C2F200060FD03078B3
:1021D00068B90DF106004FF49071022201F0E2FCA3
:1021E0009DF80600002124F01104FEF7E5FAE00650
:1021F00010D5307870B940F22060C2F2000000784B
:10220000012807D010F0100104D100F00F000021C8
:10221000FEF7D2FA3078002818BFFEF70BFE2878B8
:10222000002848D0BDF80400C00709D140F2206062
:10223000C2F200000078002100F00F00FEF7BCFAA7
:10224000A0050FD540F6B030C2F200000021018099
:1022500040F6A231C2F200010988022201F00AFD13
:1022600002F0B6F840F29644C2F200042078BDF8BD
:102270000410002801F0020118BF0120B0EB510F3B
:1022800013D002F0FBF82078BDF80410002818BF26
:10229000012021F4007141EA4020ADF8040001A8BA
:1022A00040F60E01022201F0E5FC01F04BFDC005F5
:1022B00048BF01F0E9FE02B070BD082000F050B93F
:1022C000102000F04DB9802000F04AB9B0B582B0BE
:1022D000C000002100F606040DF10605ADF8061059
:1022E00028462146022201F0C5FC00BF28462146AF
:1022F000022201F057FCBDF80600C005F6D402B07A
:10230000B0BD000081B0EFF3108072B60090FFE71F
:10231000FEE700007148C08B704700BF6F48008B1C
:10232000704700BF6D48808B704700BF6D486C4997
:102330004FF080720A504FF48000022208604FF480
:10234000000008604FF000700860644800210160E0
:1023500041608160C1600161416101834183828389
:10236000C1834FF4FA7101840A2180F8221070476A
:10237000B0B55A4C258BAA420AD125692DB28542A7
:1023800006D165692DB28D4202D1658BAB420FD06B
:10239000EFF3108572B62568A5606568E560206179
:1023A0000020616122836383208484F8220062B666
:1023B000B0BD00BF2DE9F041DFF82081D8F8000062
:1023C000D8F8040098F82200092820D898F82200AC
:1023D000D8F80810D8F81020D8F80830D8F80C40F1
:1023E000D8F81450D8F80C6098F82270D21A431C10
:1023F000013702FB03F00A2288F8227090FBF2F00A
:102400000844A91B594391FBF2F10D1903E0D8F8D8
:102410001000D8F81450C8F80000C8F80450304E26
:10242000B8F81A10C90708D14FF480004FF0807136
:1024300030602C483150002036E000B206F050FAEF
:10244000044628B206F04CFA4021264B4FF0010C0E
:102450004FF4807E4FF080753160132100BF00BFC4
:1024600000BF00BF00291BD40CFA01F280272242D2
:1024700008BF4FF40007376002424FF4007208BFF4
:102480004FF00072326046F803E0013900BF00BF30
:1024900000BF00BFF55000BF00BF00BF00BFE1E7B5
:1024A0004FF4800030600120A8F81C00B8F820002C
:1024B00080087C2805D8B8F820000130A8F8200052
:1024C00005E0B8F81C0040F00200A8F81C00B8F8BD
:1024D0001E000130A8F81E00BDE8F081740A00203B
:1024E0001808024000F8FFFF10B540F2EA34C000BF
:1024F000C2F2000400F500612046082201F052FB00
:10250000204610BDB0B5044600F00CF9054640F277
:10251000C430C2F200000078611C18BF044400BF40
:1025200000F000F9401BA042FAD3B0BD80B580286E
:102530000CD0102806D0082818BF80BD03F06EFC10
:10254000082006E005F05EFC102002E005F0FAFC31
:10255000802043F61441C4F20101086080BD0000F0
:1025600043F61441C4F201010A68024214BF086034
:102570007047FFF7DBBF00002DE9F04F83B000F19B
:10258000200200F13E4741F60045009207F1FF7737
:10259000C4F2020508224FEAB726A84208BF072264
:1025A000072E38BF4FEAB72200274FF0000A4FF03E
:1025B000000801920AE000BF08F101080AF1020ACE
:1025C000B8F1100F07F1040700F09B800D6801229D
:1025D00002FA08FC15EA0C09EED04D68032205F05A
:1025E000030BABF10106012E02FA0AFE10D8866831
:1025F000CC6826EA0E0604FA0AF434438460446880
:10260000C5F3001524EA0C0605FA08F52E434660CA
:10261000BBF1030F1BD0C6688D6826EA0E0605FACB
:102620000AF52E43BBF1020FC66010D16FF0030212
:10263000009D02EA580655F806C007F01C040F2258
:102640000B69A2402CEA0202A3401A43AA51026875
:102650004B6822EA0E0203F0030606FA0AF632433A
:1026600013F4403F0260A7D0002243F644030292D5
:10267000C4F202031A6843F6004442F480421A602E
:102680001A68C4F2010402F480420292029A28F00D
:1026900003024FF6084C2244CFF6FF7C52F80C3070
:1026A00007F00C060F25B540AB43019D05FA06F671
:1026B000334342F80C3022684B6842EA0906DD03D6
:1026C00058BF22EA0906266062689D0342EA0906AD
:1026D00058BF22EA09066660A268DD0242EA0906DE
:1026E00043F60C4558BF22EA0906A660C4F201056C
:1026F0002A689B0242EA090658BF22EA09062E60B0
:102700005AE703B0BDE8F08F426902EA0103914342
:1027100041EA034181617047002A08BF09048161D1
:102720007047000040F6E030C2F2000000687047D9
:1027300040F2C43040F6E031C2F20000C2F20001C3
:1027400000780A68104408607047000080B543F6BE
:102750000040C4F20200016841F4007101600168A8
:1027600041F480610160016841F4807101600320DF
:1027700000F08CF8002000F005F800F02BF80020A5
:1027800080BD0000B0B540F2C432C2F2000240F297
:1027900068311278C2F200014FF47A730968B3FB12
:1027A000F2F20446B1FBF2F1084600F0CDFE0F2C28
:1027B0004FF001050CD858B94FF0FF3021460022E8
:1027C000002500F037F840F2C830C2F20000046083
:1027D0002846B0BD82B0002043F640010190C4F20B
:1027E00002014A6842F480424A604A6802F4804228
:1027F0000192019A0090086840F0805008600868D3
:1028000000F0805000900098052002B000F03EB823
:10281000002848BF704700F01F01012202FA01F1B1
:102820001C2202EAD0004EF20012CEF200028150C9
:102830007047000010B54EF60C5CCEF2000CDCF8D0
:102840000030C3F3022E8EF00704042C28BF0424AA
:10285000BEF103034FF0FF3E0EFA04F438BF00232D
:10286000A14399400EFA03F39A43114300F16042E9
:1028700000F00F03090102F56442043B63440028A1
:1028800048BF03F10C02117010BD00004EF60C5150
:10289000CEF200010A684FF6FF031A4060F30A22E5
:1028A00042F0806040F0FD700860704770470000A3
:1028B000002804BF012070472DE9F04143F60808C5
:1028C000C4F202080446D8F8F8030D4600F00700E9
:1028D000814207D988F8F853D8F8F80300F00700C8
:1028E000A84276D12068810717D5410705D5D8F8C9
:1028F000001041F4E051C8F80010010705D5D8F8E0
:10290000001041F46041C8F80010D8F80010A26827
:1029100021F0F0011143C8F80010C0073FD1D8F8EA
:10292000F80300F00700854207D288F8F853D8F87A
:10293000F80300F00700A8424BD12068410707D5F3
:10294000D8F80010E26821F4E0511143C8F80010F3
:10295000000708D5D8F80000216920F4604040EA5B
:10296000C100C8F8000000F081F8D8F8001049F262
:102970001C32C1F30311C0F60002515C40F2683210
:1029800020FA01F140F2C830C2F200000068C2F241
:1029900000021160FFF7F6FE0020BDE8F0816068DC
:1029A000811E022907D258F8081C89015CBF01204A
:1029B000BDE8F08110E0012807D158F8081C890310
:1029C0005CBF0120BDE8F08106E058F8081C8907CB
:1029D00002D40120BDE8F081D8F8001021F00301F5
:1029E0000843C8F80000FFF79DFE064641F288370D
:1029F000D8F80000616800F00C00B0EB810F8ED0B9
:102A0000FFF790FE801BB842F2D90320BDE8F081A9
:102A10004C20C4F2472001210160704740F2683029
:102A200043F60801C2F20000C4F20201006809681E
:102A300049F22C32C1F38221C0F60002515CC84039
:102A40007047000040F2683043F60801C2F200000F
:102A5000C4F202010068096849F22C32C1F3423124
:102A6000C0F60002515CC8407047000010B543F644
:102A70000404C4F202046168C1F3810142F200401F
:102A8000C0F2F400DFE801F00203080210BD41F2D9
:102A90000020C0F27A0010BD216801F03F022168D9
:102AA00023684902C3F3881105D4A1FB0001002368
:102AB000FDF786FB06E041F20020C0F27A004843B1
:102AC000B0FBF2F021680222C1F3014102EB4101A7
:102AD000B0FBF1F010BD000010B543F60C04C4F2D9
:102AE00002042068000658BF10BDFFF7DFFE8020FB
:102AF000A07010BD002804BF012070472DE9F041EF
:102B000082B00446007843F60006C007C4F202060D
:102B100049D0B06800F00C00042809D13068800367
:102B200041D5606800283ED1012002B0BDE8F081A7
:102B3000B06800F00C00082802D170684002EDD4A3
:102B400065683068B5F5A02F05D0B5F5803F09D18F
:102B500040F480300CE040F480203060306840F475
:102B6000803005E020F480303060306820F4802030
:102B70003060FFF7D7FD002D054611D03068800387
:102B800011D4FFF7CFFD401B6428F7D928E100BF1F
:102B9000FFF7C8FD401B64284FF0030000F2E080FF
:102BA00030688003F4D4207880071BD5B06810F01B
:102BB0000C0F09D0B06800F00C00082840F08580A8
:102BC0007068400200F181803068800703D5E068BA
:102BD000012840F09A803068216920F0F80040EA2E
:102BE000C10030602078000734D42078400746D4F4
:102BF000A5695DB3B06800F00C00082840F09C8027
:102C0000012D00F082807068E16900F480028A4240
:102C10007BD1216A00F03F028A4276D147F6C0712B
:102C2000626A0140B1EB821F6FD1A16A4FF6FF7358
:102C3000C903994300F44032A1F580318A4264D13E
:102C4000E16A00F07060B0EB016F5ED1002002B06D
:102C5000BDE8F081606900285BD00020C4F2472005
:102C60000121C0F8801EFFF75DFD0546706F8007EB
:102C7000BBD4FFF757FD401B0228F7D9B0E0306CFA
:102C80005FEAC0080AD400200190306C40F0805008
:102C90003064306C00F080500190019847F20007DA
:102CA000C4F200073868C00526D4386840F4807044
:102CB0003860FFF737FD05463868C0051CD4FFF7BC
:102CC00031FD401B0228F7D98AE0E068002840F275
:102CD0000000C4F2472053D001210160FFF722FD1C
:102CE000054600BF306880073FF575AFFFF71AFD56
:102CF000401B0228F6D973E0A568306F052D51D02E
:102D0000012D56D140F0010059E0012002B0BDE88C
:102D1000F0810020C4F247200021C0F8801EFFF798
:102D200001FD0546706F80077FF55FAFFFF7FAFC86
:102D3000401B0228F6D953E00027C4F247270020A1
:102D40003866FFF7EFFC022D05460DD13068800193
:102D50005DD5FFF7E7FC401B02284FF00300F5D9D3
:102D600002B0BDE8F08100BF306880017FF56EAF32
:102D7000FFF7D8FC401B02284FF00300F4D9EFE71F
:102D800000210160FFF7CEFC054600BF30688007D8
:102D90007FF528AFFFF7C6FC401B02284FF0030069
:102DA000F4D9DDE740F004003067306F40F00100F7
:102DB00005E020F001003067306F20F0040030673C
:102DC000FFF7B0FC002D054641F2883713D000BF55
:102DD000306F800712D4FFF7A5FC401BB842F7D92B
:102DE000032002B0BDE8F081FFF79CFC401BB84215
:102DF0004FF00300B4D8306F8007F5D4B8F1000F5E
:102E00003FF5F6AE306C20F080503064F0E604F10F
:102E10001C052FCD084340EA8210D9034FF6FF72FC
:102E20009143A1F5803140EA0560084370600120BC
:102E30003866FFF777FC0446306880013FF506AF3F
:102E4000FFF770FC001B02284FF00300F4D987E75E
:102E500070B528B1416A29B100210161142106E051
:102E6000012070BD4168B1F5827F02D01C21002293
:102E700042500026866290F8511029B980F85060BF
:102E8000054600F03DF82846022180F8511090E8F0
:102E90002E0002F482720C6803F4044324F0400410
:102EA0000C601A4405F4006305691A4405F0020336
:102EB00045691A4405F001038569C4691A4405F49B
:102EC00000731A4404F03803046A1A4404F08003BF
:102ED000846A1A4304F400531A430A60436A0422C2
:102EE00002EA154203F010031A444A60CA6922F448
:102EF0000062CA610121466580F85110304670BDFC
:102F000080B58AB00990002008900790069005903F
:102F100004900998006843F60001C4F20001884259
:102F200035D1FFE7FFE70020039043F64000C4F2ED
:102F30000200016841F480410160006800F48040B3
:102F400003900398FFE7FFE70020029043F630006C
:102F5000C4F20200016841F002010160006800F063
:102F6000020002900298FFE74FF4204004900220F4
:102F7000059000200690032007900520089040F25D
:102F80000040C4F2020004A9FFF7F6FA3EE00998F7
:102F9000006843F60041C4F20001884235D1FFE7E2
:102FA000FFE70020019043F64000C4F202000168F0
:102FB00041F400410160006800F400400190019874
:102FC000FFE7FFE70020009043F63000C4F2020064
:102FD000016841F004010160006800F00400009005
:102FE0000098FFE74FF4E050049002200590002085
:102FF0000690032007900620089040F60000C4F2D7
:10300000020004A9FFF7B8FAFFE7FFE70AB080BDA6
:103010002DE9F04381B0044640681D461746B0F5DF
:10302000827F0E4602D1A06800285AD094F8500042
:10303000012803D1022001B0BDE8F0834FF001095F
:1030400084F85090FFF76EFB94F85110012946D197
:103050008046002E4FF0010018BF002F77D00420CB
:1030600084F8510000206065A663A787E787206386
:10307000A086E086A1682064B1F5004F606408D1A5
:103080002068016821F040010160016821F480415D
:10309000016020680168490603D4016841F04001DD
:1030A0000160E168E08F49B3002843D06E1C09E05D
:1030B000C068A16B21F8020BA163E08F0138E087A3
:1030C000E08FB8B320688168C907F1D1FFF72AFB08
:1030D000002EF5D0A0EB0800A842F1D328E0022092
:1030E00035E0042084F851002046314632463B4604
:1030F000009500F017F901B0BDE8F083D0B16E1C67
:103100000AE0007BA16B0870A06B0130A063E08F28
:103110000138E087E08F68B120688168C907F0D185
:10312000FFF700FB002EF5D0A0EB0800A842F1D37A
:1031300003200CE020462946424604F0CBF9002843
:103140001CBF20206065606D002818BF0120002191
:1031500084F8519084F8501001B0BDE8F08300006D
:103160002DE9F04383B0044690F85000012803D1C4
:10317000022003B0BDE8F0834FF001081D460F4662
:10318000164684F85080FFF7CDFA94F851100129C3
:103190005DD18146002F4FF0010018BF002E00F0D6
:1031A000B880032084F85100002060652763A6865C
:1031B000E686A063A087E087A2683146B2F5004F9B
:1031C000C4E9100008D12068026822F040020260C1
:1031D000026842F48042026020680268520603D40A
:1031E000026842F04002026062680139E368B2FAA4
:1031F00082F2B1FA81F152094909B3F5006F41EA4F
:10320000020126D131B137F8021BC1602763E08E7D
:103210000138E086E08E002841D06F1C0AE000BF34
:10322000216B31F8022BC2602163E08E0138E08609
:10323000E08EA0B3206881688907F1D4FFF772FAA5
:10324000002FF5D0A0EB0900A842F1D325E0022021
:103250005FE039B139780173206B01302063E08E73
:103260000138E086E08ED0B16F1C0AE0216B09784E
:103270000173206B01302063E08E0138E086E08E20
:1032800068B1206881688907F0D4FFF74BFA002FF6
:10329000F5D0A0EB0900A842F1D3032039E040F2B9
:1032A0006830C2F20000006849F68171C1F25E61C7
:1032B000A0FB0101480D4FF47A7148430290606809
:1032C000B0F5827F0ED1204680212A464B4604F07D
:1032D0002DF980B1606D40F02000606520206065B0
:1032E00009E000BF029830B10298013802902068CE
:1032F00080680006F6D4A06838B9002001902068E4
:10330000C1680191806801900198606D002818BF24
:103310000120002184F8518084F8501003B0BDE8EA
:10332000F08300002DE9F04383B0044690F850008C
:10333000012803D1022003B0BDE8F08301201E461E
:1033400015460F4684F85000FFF7ECF994F8511039
:10335000814601296BD1002F4FF0010018BF002DCD
:1033600000F0AF80002E00F0AC8094F851000021F6
:1033700004281CBF052084F851006165A563E68719
:10338000A6872763E6862068A686216461640168B3
:10339000490603D4016841F0400101606168731E71
:1033A000E268B1FA81F1B3FA83F3DDF828804909C4
:1033B0005B09B2F5006F41EA030147D131B137F83B
:1033C000021BC1602763E08E0138E086012608F108
:1033D000010500BFE08E10B9E08F00287AD0206888
:1033E000816889070CD5E18E51B1012E08D1216B7E
:1033F000002631F8022BC2602163E18E0139E1869B
:103400008168C9070AD0E18F41B1C068A16B01266C
:1034100021F8020BA163E08F0138E087FFF782F902
:10342000002DD7D0A0EB09004045D3D348E0606819
:10343000B0F5827F08D104294FF0020041D1A16884
:1034400000293FF488AF3CE002203AE039B13978F6
:103450000173206B01302063E08E0138E086012685
:1034600008F10105E08E08B9E08F98B32068816803
:1034700089070DD5E18E59B1012E09D1216B0026A6
:1034800009780173206B01302063E08E0138E086FB
:1034900020688168C9070BD0E18F49B1C068A16B72
:1034A00001260870A06B0130A063E08F0138E0872F
:1034B000FFF738F9002DD5D0A0EB09004045D1D356
:1034C0000320012184F85110002184F8501003B02A
:1034D000BDE8F08340F26830C2F20000006849F6AF
:1034E0008171C1F25E61A0FB0101480D4FF47A7158
:1034F000484302906068B0F5827F0ED1204680215B
:1035000042464B4604F012F880B1606D40F0200056
:103510006065202060650120D3E7029830B10298F1
:1035200001380290206880680006F6D4A068002860
:103530004FF00000C5D101902168CA6801928968E6
:1035400001910199BDE70000411E0020B0EB116F11
:103550001CBF012070474EF21002CEF200025160F3
:103560004EF62351CEF20001F0230B70072190603C
:1035700011607047704700007047000090F83C20D1
:10358000012A4FF0020255D010B5012380F83C30DB
:1035900080F83D200268D2F804E0D2F808C00C6838
:1035A0002EF07003234341F2FF74C4F20004A242E0
:1035B00053600DDC40F2FF73C4F200039A4215DC45
:1035C000B2F1804F29D040F20043C4F2000322E060
:1035D00040F2FF33C4F201039A4212DC41F60003C9
:1035E000C4F200039A4218D0002312E040F6000310
:1035F000C4F200039A4210D040F60043C4F2000324
:1036000009E044F20003C4F201039A4205D040F2FB
:103610000043C4F201039A4204D149682CF08003AC
:10362000194391600121002280F83D1080F83C2070
:10363000BDE8104010467047002804BF01207047C5
:1036400010B5044690F83D0028B9002084F83C00ED
:10365000204600F01FF8022084F83D002068211D5C
:1036600004F03CFD012084F8460084F83E0084F814
:103670003F0084F8400084F8410084F8420084F858
:10368000430084F8440084F8450084F83D0000209D
:1036900010BD00001FB50068B0F1804F27D0204951
:1036A000884214D01F49884218BF1FBD002036240D
:1036B000012203901C48016841F0100101600321C0
:1036C000006800F010000390039836201FE00020EF
:1036D000372402901448016841F020010160012163
:1036E000006800F020000290029837200EE00020D1
:1036F0001C2401900C48016841F001010160022185
:10370000006800F00100019001981C200022FFF7E2
:1037100091F8204604B0BDE81040FFF779B800BF2B
:1037200000140040001000404038024090F83D1066
:1037300001291CBF01207047022180F83D1000685C
:1037400041F2FF72C168C4F20002904241F00101EF
:10375000C1600DDC40F2FF71C4F20001884215DC4B
:10376000B0F1804F29D040F20041C4F2000122E0C4
:1037700040F2FF31C4F20101884212DC41F600013F
:10378000C4F20001884218D0002112E040F6000186
:10379000C4F20001884210D040F60041C4F200019A
:1037A00009E044F20001C4F20101884205D040F270
:1037B0000041C4F20101884206D1816801F007018D
:1037C000062904BF00207047016841F00101016033
:1037D000002070477047000010B50446006801697A
:1037E000890744BFC1685FEA81713FD420680169DD
:1037F000490744BFC1685FEA417143D42068016949
:10380000090744BFC1685FEA017148D420680169B3
:10381000C90644BFC1685FEAC1614CD42068016930
:10382000C9071CBFC1685FEAC17151D12068016935
:10383000090644BFC1685FEA016150D4206801698C
:10384000490644BFC1685FEA41614FD421680869F5
:10385000800646BFC8685FEA806010BD6FF0200236
:1038600020460A61BDE81040FFF786BE6FF00201F6
:10387000016101212177806980073ED02046FFF752
:10388000A9FF40E06FF00401016102212177806906
:1038900010F4407F3AD02046FFF79CFF3CE06FF0E9
:1038A0000801016104212177C069800737D02046D3
:1038B000FFF790FF39E06FF01001016108212177D7
:1038C000C06910F4407F33D02046FFF783FF35E016
:1038D0006FF001010161204600F038F8A6E76FF0B3
:1038E000800101612046FFF745FEA7E76FF0400128
:1038F0000161204600F02CF8A8E7204600F022F8ED
:10390000204600F021F8002020776FE7204600F0E5
:1039100019F8204600F018F8002020776EE72046BE
:1039200000F010F8204600F00FF8002020776DE737
:10393000204600F007F8204600F006F80020207727
:103940006CE70000704700007047000070470000FF
:1039500070470000002804BF0120704710B50446DE
:1039600090F83D0028B9002084F83C00204600F083
:1039700021F8242084F83D002068C16821F400511A
:10398000C160204604F03CFC2068016921F49041AC
:103990000161416921F02A014161C16841F400518E
:1039A000C16000202021206484F83D1084F83E107E
:1039B00010BD000080B586B041F200010068C4F27D
:1039C0000101002288420592CDE903220292019270
:1039D00001D006B080BD43F630000092C4F2020070
:1039E000436943F010034361436903F010030093FC
:1039F000009B0092036843F001030360006800F03D
:103A00000100009000984FF4C06001900220CDE9C1
:103A10000202032004900720059001F5704001A9DF
:103A2000FEF7AAFD06B080BD2DE9F04381B0044643
:103A300090F83D0020280DD10E4600294FF00100DE
:103A400018BF002A02D101B0BDE8F08394F83C0011
:103A5000012803D1022001B0BDE8F083012084F8E1
:103A60003C00002020642120994684F83D00154642
:103A7000FEF758FEA584E584A1688046B1F5805F15
:103A800002D12069002855D037460026002084F84E
:103A90003C00E08C002842D009F101050AE000BF9B
:103AA00097B117F8010B21684860E08C0138E08479
:103AB000E08CA0B3206800680006F1D4BDB1B9F174
:103AC000000F0ED116E000BF36F8020B21686FF32D
:103AD0005F2048600027E8E701680906E0D4002D70
:103AE000FAD0FEF71FFEA0EB0800484502D8206878
:103AF000F2E700BF206850E8030F216820F4D0707F
:103B000041E80302002AF5D1206850E8050F21683A
:103B100020F0010041E80502002AF5D10CE0206800
:103B20000068400637D4B9F1000F1FD019F1010524
:103B30000ED014E00027A9E7202084F83D0084F887
:103B40003E00002084F83C00032001B0BDE8F08373
:103B5000206800BF016849061DD4002DFAD0FEF789
:103B6000E1FDA0EB08004845F2D900BF206850E80D
:103B7000030F216820F4D07041E80302002AF5D138
:103B8000206850E8050F216820F0010041E8050297
:103B9000002AF5D1D0E7202084F83D00002001B0B4
:103BA000BDE8F083002A08BF70472DE9F0411746B1
:103BB0000D4606464FF000080FE000BF0124EFF36A
:103BC000108072B6A2B2304603F09AF93F1B16FA83
:103BD00084F63804254462B616D0A9B2B8EB113F7A
:103BE0003C46ECD1B8B20428044628BF0424CA07D6
:103BF000E4D18A0703D4032808BF0124DFE704F0D7
:103C00000100C0F10204DAE7BDE8F04170470000AE
:103C1000002A08BF70472DE9F04117460D460646B9
:103C20004FF000080BE000BF0124A2B2304603F0C1
:103C300067F93F1B16FA84F63804254416D0A9B25A
:103C4000B8EB113F3C46F0D1B8B20428044628BF77
:103C50000424CA07E8D18A0703D4032808BF012433
:103C6000E3E704F00100C0F10204DEE7BDE8F04143
:103C700070470000002A08BF70472DE9F041174641
:103C80000D4606464FF000080FE000BF0124EFF399
:103C9000108072B6A2B2304603F0E4FB3F1B16FA66
:103CA00084F63804254462B616D0A9B2B8EB113FA9
:103CB0003C46ECD1B8B20428044628BF0424CA0705
:103CC000E4D18A0703D4032808BF0124DFE704F006
:103CD0000100C0F10204DAE7BDE8F04170470000DE
:103CE000002A08BF70472DE9F04117460D460646E9
:103CF0004FF000080BE000BF0124A2B2304603F0F1
:103D0000B1FB3F1B16FA84F63804254416D0A9B23D
:103D1000B8EB113F3C46F0D1B8B20428044628BFA6
:103D20000424CA07E8D18A0703D4032808BF012462
:103D3000E3E704F00100C0F10204DEE7BDE8F04172
:103D400070470000B0B50024EFF3108072B6C4F2E3
:103D5000020420464FF400410022FEF7DDFC40F251
:103D6000D435C2F2000528464FF40871022203F050
:103D7000C7F820464FF400410122FEF7CDFC62B6A1
:103D80002888B0BDB0B50024C4F2020420464FF428
:103D900000410122FEF7C0FC00BF00BF20464FF4E7
:103DA0000041002200BFFEF7B7FC40F2D435C2F25A
:103DB000000528464FF40871022203F0A1F82046BE
:103DC0004FF400410122FEF7A7FC2888B0BD000097
:103DD00070B582B040F60044C4F2020420460421CB
:103DE00000220025FEF798FC3220FEF78BFB2046D0
:103DF00004210122FEF790FC3220FEF783FB04F041
:103E0000E3FA93260DF10604ADF80660EFF3108097
:103E100072B620464FF40171022203F023FB62B612
:103E2000ADF80650EFF3108072B620464FF40171E2
:103E3000022203F065F862B6BDF806009328E3D1CC
:103E4000542040F2011103F0D3F95C20012103F06A
:103E5000CFF9582003F086F80020ADF80600EFF304
:103E6000108072B60DF106004FF40171042203F0C8
:103E7000F9FA62B600F096F84EF20014CEF20004A1
:103E80004FF40070206000F0B3F800F0D7F84FF462
:103E9000806020604FF40000206000F05BF840F28A
:103EA0009050C2F20000FFF741FC4FF080502060BC
:103EB000002062B602B070BD7047000040F28E4034
:103EC000C2F200000078002818BF704770B582B0B9
:103ED00040F6B834C2F2000426685EB30025684696
:103EE0004FF4116104220095FFF792FE009828B16B
:103EF000B0423ABFF1430844801B00E0002040F686
:103F0000CC31C2F200010968411A40F65830C2F2C1
:103F10000000426828BF0D46511EA942256028BFF7
:103F2000456040F61430C2F2000041680139A942F0
:103F300028BF45600020019001A84FF411610422C0
:103F4000FFF766FE0198206002B0BDE87040704740
:103F5000FEE7000010B582B040F29050C2F20000BF
:103F60004FF080410024292240F2CF7380E81600F0
:103F70008021CDE90044C3608161FFF75DFB00282B
:103F800018BFFEF7BFF940F29050C2F20000694638
:103F9000CDE90044FFF7F2FA002818BFFEF7B2F9A6
:103FA00002B010BD80B586B00020019043F630000D
:103FB000C4F20200016841F008010160006801A933
:103FC00000F0080001900198082001904FF40410BF
:103FD00002900120039040F60040C4F20200FEF778
:103FE000CBFA092001210022FEF724FC06B080BD97
:103FF00080B586B00020019043F63000C4F2020084
:10400000016841F008010160006801A900F00800A2
:1040100001900198102001904FF4041002900120AB
:10402000039040F60040C4F20200FEF7A5FA0A2011
:1040300001210122FEF7FEFB06B080BD80B586B0EF
:104040000020019043F63000C4F20200016841F004
:1040500008010160006801A900F0080001900198C2
:10406000802001904FF4041002900120039040F64C
:104070000040C4F20200FEF77FFA1720012101225E
:10408000FEF7D8FB06B080BDF0B581B040F6A03594
:10409000C2F2000529880DF102000222FFF782FD1D
:1040A00040F29940C2F200000078012841D10A2074
:1040B00005F0ECF8E8B340F22063C2F200030021FF
:1040C00004221B78016002804FF48032426003F0CA
:1040D0000F02012A4FF00702028128D040F6D9369C
:1040E000C2F2000632788180520704BF012131708C
:1040F000317804460903818000F07AF801462046B1
:1041000091B140F6D021C2F200014A888B88571C39
:10411000BCB2E31A18BF3B460F889CB2A74206D038
:1041200001EB820290604B8031780131317005F0F3
:1041300085F8BDF8020040F6D832811D40F2A0405B
:10414000C2F20002C2F2000012780078D2B210432C
:10415000ADF8021007D040F29A40C2F200000121EF
:10416000017001B0F0BD40F6A634C2F2000440F286
:104170009A472088C2F20007002289B281423A7031
:1041800088BFADF8020005F081F840F26C66C2F21B
:104190000006306038B32988BDF80220FFF702FD21
:1041A0000027684640F604010222ADF80070FFF7D0
:1041B000F9FCBDF80000ADF80000BDF800000005F6
:1041C0000CD540F6B030C2F2000007802988228862
:1041D0001144023989B20222FFF7E4FC306800F092
:1041E000D9F901B0F0BD0120387001B0F0BD000078
:1041F00040F22061C2F20001097801F00F010129AB
:104200004FF0F00169D040F29742C2F200021278FA
:10421000002A62D02DE9F04381B040F2A044C2F2FE
:104220000004217809B1072154E0028840F6A23841
:10423000C2F20008B8F80010971DBAB28146FFF725
:1042400019FD00260DF1020040F60C010222ADF826
:104250000260FFF7A7FCBDF80200ADF80200BDF850
:104260000200000525D440F6A830C2F200000588FF
:1042700040F6B032E81B81B2C2F20002012916807A
:104280000BD8C0F1020027F0010182B240F6B03035
:104290004944C2F20000FBF7C4FFB8F80000022254
:1042A0002844023881B240F6B030C2F20000FFF775
:1042B000E1FC40F26060C2F20000016829B140F206
:1042C0006C61C2F2000100220A60C0F80090012077
:1042D0000021207001B0BDE8F0430846704700009F
:1042E000B0B582B040F6A630C2F2000024210180B1
:1042F00040F6A830C2F200008021018040F6A030D4
:10430000C2F200004FF48051018040F6A230C2F2A8
:104310000000018040F69C20C2F2000000250A2126
:104320000560818040F6D020C2F2000005608180E7
:1043300040F26C60C2F20000056040F26460C2F2BC
:104340000000056040F26060C2F20000056040F2CB
:104350006860C2F20000056040F29640C2F20000C0
:104360000DF106040570204640F60E010222ADF85C
:104370000650FFF717FCBDF8060040F60E0120F4CA
:104380000070ADF8060020460222FFF773FC40F2F1
:104390009740C2F20000057040F2A040C2F2000057
:1043A000057040F29A40C2F20000057040F6D83025
:1043B000C2F20000057040F6DA30C2F2000005706B
:1043C00040F6D930C2F20000057002B0B0BD000066
:1043D000B0B540F26465C2F20005286840F2A04121
:1043E00040F26864C2F200010022C2F200040A70C6
:1043F00028B1216819B904F021FF0020286040F29B
:104400006061C2F2000120680968296020B1FFF7ED
:10441000EFFE0020206017E040F6D021C2F200013C
:104420000A884888824201D1002009E001EB82001D
:1044300001328B88806895B2EB1A18BF13460B8047
:10444000002818BFFFF7D4FE40F6D834C2F20004AB
:104450002078810710D500F0FD0140F26C60C2F2B7
:10446000000000682170FDF73DF8002808BFB0BDCE
:10447000207840F002002070B0BD0000F0B581B09F
:1044800040F26465C2F200052C68F4B140F2A04627
:10449000C2F20006307898B140F26867C2F20007B5
:1044A000386868B90120FDF709FD40F26060C2F28A
:1044B0000000006838600120FDF708FF0020307020
:1044C0002046FFF795FE0020286040F29640C2F299
:1044D00000000178B1FA81F14909017001B0F0BD25
:1044E000F0B581B040F22062C2F2000212780C46B0
:1044F00002F00F01012902D1F02001B0F0BD40F619
:10450000D9358188C2F200052A786FF31F3152072E
:10451000818004BF01222A702A78074641EA0231CD
:104520008180FFF765FEA8B140F6D020C2F20000FE
:1045300043888288591C8EB2B61A18BF0E4601886D
:10454000B2B291420BD1072091420FD029780131AC
:1045500029700DE0287801302870002008E000EB79
:104560008303468000209F609142EFD164F07F0476
:1045700061B2B1F1FF3F01DD01B0F0BD40F6D831CD
:10458000C2F200010A7804F07F031A430A7001B0F6
:10459000F0BD000070B502888188812A14D30422FE
:1045A00040F220630280C2F200031B7821F47062A3
:1045B000828003F00F02012A40F20102C0F20802D9
:1045C000C0F8062040D170BD40F6DA3C0A0BB1F5C8
:1045D000805FC2F2000C07D39CF800309A4203D1EE
:1045E000BDE8704004F02ABE40F69C2EC2F2000ED8
:1045F000BEF80240BEF80450631C9EB2761B18BF82
:104600001E46BEF80050B3B29D428CF8002001D186
:10461000072205E00EEB840290600022AEF80260F3
:104620009D4218BF70BD042340F220660380C2F291
:10463000000621F47063367883800123C38006F07E
:104640000F03012B0281BED040F6D934C2F2000420
:104650002278C9B25207818004BF012222702278D9
:10466000054641EA02318180FFF7C2FDB0B140F654
:10467000D020C2F20000418882884B1C9EB2B21A40
:1046800018BF1A46038896B2B3429CD000EB810152
:104690008D6021784280481C207070BD20780130E8
:1046A000207070BD2DE9F04740F69C2540F220694E
:1046B00040F6D93640F6D027C2F200054FF0040884
:1046C0004FF0010AC2F20009C2F20006C2F200076E
:1046D00005E000BF307801303070002C52D02888BF
:1046E000698888420CD10024B4B1A08800F47060BD
:1046F000B0F5407F14D12046FDF7C8F898B9ECE733
:1047000005EB80018C680130A98882B2511A18BF6C
:1047100001462980002CE8D1002020B9DDE700BF48
:1047200002200028D9D0A188A4F8008021F470626A
:10473000A28099F80020A4F806A002F00F02012A36
:104740002081CAD03278C8B25107A08008BF86F84D
:1047500000A0317840EA0130A0802046FFF748FDF4
:104760000028B7D07888B988421C93B2591A18BF6C
:1047700011463A888BB29A42AFD007EB8000846032
:104780007980A7E740F29A40C2F200000078002842
:1047900008BFBDE8F087BDE8F047FFF775BC000033
:1047A00070B50020FDF7A0FE418840F6A635C2F2A4
:1047B00000052980008840F6A034C2F20004208061
:1047C0000120FDF791FE418840F6A832C2F20002B6
:1047D000118022882B8800881344834240F6A2333C
:1047E000C2F20003188004D90844904284BF162006
:1047F00070BD00200024FDF769FD01200126FDF7B2
:1048000065FD288804F042FD40F26C65C2F20005A7
:10481000286028B140F29941C2F200010C700CE00E
:1048200040F29940C2F2000006700A2004F02EFD0A
:10483000B0FA80F1490928604C0004F0FFFC002028
:104840002860204670BD0000F0B581B040F297406E
:10485000C2F20000002101700020FDF72FFB0120B3
:10486000FDF72CFB40F26464C2F2000420680028CB
:1048700018BF04F0E3FC40F26865C2F20005286846
:1048800020B12168884201D004F0D8FC40F2606772
:10489000C2F20007386838B12168884204D029681C
:1048A000884201D004F0CAFC02F0D0FA40F26C60F9
:1048B000C2F200000026066040F296402660C2F276
:1048C00000000DF102040670204640F60E0102229F
:1048D0003E602E60ADF80260FFF764F9BDF802009B
:1048E00040F60E0120F40070ADF8020020460222CE
:1048F000FFF7C0F940F2A040C2F20000067040F29B
:104900009A40C2F20000067040F6D830C2F20000B1
:10491000067040F6DA30C2F20000067040F6D93078
:1049200040F69C24C2F20000C2F20004067000BFF0
:1049300021886088814203D1002060B90EE000BF69
:1049400004EB81000131A28880688BB29A1A18BFEB
:104950000A46228010B104F071FCE9E740F6D02449
:10496000C2F2000421886088814203D1002060B92E
:104970000EE000BF04EB81000131A28880688BB299
:104980009A1A18BF0A46228010B104F057FCE9E7D2
:1049900001B0F0BD80B59CB000201B901A9019901A
:1049A00018901790FFE70020169043F63000C4F2ED
:1049B0000200016841F010010160006800F0100081
:1049C00016901698FFE7FFE70020159043F6300099
:1049D000C4F20200016841F004010160006800F0C7
:1049E000040015901598FFE7FFE70020149043F6A8
:1049F0003000C4F20200016841F002010160006869
:104A000000F0020014901498FFE7FFE700201390D5
:104A100043F63000C4F20200016841F00801016071
:104A2000006800F0080013901398FFE7FFE70020EC
:104A3000129043F63000C4F20200016841F0010117
:104A40000160006800F0010012901298FFE741F247
:104A50000000C4F202000790FF21039100220B9294
:104A6000FDF75AFE40F60000C4F2020005900C214A
:104A7000049101220F92FDF74FFE05980B9A4FF417
:104A800030710691FDF748FE0B9A40F20040C4F2E7
:104A9000020001904FF488410091FDF73DFE0F9A0E
:104AA00040F60040C4F2020010904FF48061029181
:104AB000FDF732FE0B9A0020C4F202000D904FF475
:104AC00080710E91FDF728FE0F9A109848F20401AC
:104AD0000891FDF721FE0D980F9A4FF400410A91BD
:104AE000FDF71AFE009B01980B990F9A17931892E5
:104AF000199103210C911A9117A91191FDF73CFD11
:104B0000DDF808C00B9A0F9B10981199CDF85CC086
:104B100018931992022209921A92FDF72DFDDDF8E1
:104B20000CC007980B9A0F9B1199CDF85CC0189395
:104B300019921A92FDF720FDDDF810C005980B9A26
:104B40000F9B1199CDF85CC0189319931A92FDF739
:104B500013FD05980B9B0C9ADDF83CC01199DDF80C
:104B600018E0CDF85CE0CDF860C019931A92FDF71B
:104B700003FD07980B9B0F9A11994FF47F4CCDF8CA
:104B80005CC018931992FDF7F7FCDDF820C0099A74
:104B90000F9B10981199CDF85CC04FF0110CCDF817
:104BA00060C019931A92FDF7E7FCDDF828C00C9A53
:104BB0000D980F9B1199CDF85CC0189319931A9218
:104BC000FDF7DAFC0B9B0C9A0D98DDF83CC01199AF
:104BD000DDF838E0CDF85CE0CDF860C019931A92AA
:104BE000FDF7CAFC0F9A10981199982317934FF468
:104BF000041318931992FDF7BFFC1CB080BD000090
:104C000080B582B040F2A840C2F20000019043F6A5
:104C10000041C4F2000101604FF482714160002143
:104C20008160C160016141614FF4007282611822AC
:104C3000C2610162416281620A21C162FEF708F924
:104C400018B1FFE7FDF75EFBFFE702B080BD000093
:104C50001CB50B4880210B4C002242F2CF03CDE95A
:104C600000228161632101F019F808B1FDF74AFBC8
:104C700003486946FEF782FC08B1FDF743FB1CBD03
:104C800000050020001000401CB50B4880210B4C93
:104C900000225323CDE900228161092100F0FEFFAB
:104CA00008B1FDF72FFB04486946FEF767FC08B121
:104CB000FDF728FB1CBD00BF480500200014004084
:104CC00080B540F2D85041F20001C2F20000C4F2B7
:104CD000010100234FF00C0C4FF4E13280E80E008C
:104CE000C0E90333C0E905C3C361FEF733FE002802
:104CF00008BF80BDBDE88040FDF704BBF0B583B0C0
:104D000040F24060C2F2000000240460FDF732F976
:104D1000FCF712FD40F29440C2F200000121017044
:104D200040F29840C2F20000047040F6B830C2F27F
:104D30000000046040F6C03040F6CC36C2F20000FD
:104D4000C2F2000604603460CDE901444FF47A7782
:104D500002AC01AD20464FF411610422FEF758FF6A
:104D600028464FF411610422FEF752FFDDE90110DD
:104D70004242884288BFC24333685018591E81425C
:104D8000019028BF3060013FE4D1002003B0F0BDA6
:104D900040F29440C2F200000078002808BF70473B
:104DA000B0B540F2934040F28F44C2F20000C2F22C
:104DB00000040078227800280146D2B218BF0121F1
:104DC000002A18BF0122114238D140F28E41C2F2AE
:104DD0000001097891BB00286BD04EF20014CEF28E
:104DE00000044FF40070C4F88000BFF34F8F40F60A
:104DF0005830BFF36F8FC2F20000808BC00706D11E
:104E000040F61430C2F20000808BC00708D040F298
:104E10002E60C2F200000088002808BFFFF74EF89D
:104E2000FCF77EF940F29040C2F2000000780028C2
:104E300018BF01F097F84FF4007020602424C4F2EA
:104E40000004206840F6B435B0F5FA6FC2F20005F0
:104E500047D340F29240C2F20000007848B140F2DD
:104E6000D630C2F20000B0F900100129A4BF013908
:104E70000180FCF791FF40F28A40C2F20000007806
:104E8000002840F6D030C2F2000006D001684FF68C
:104E90004032CFF6E17291421BD8D0E9001244F2C1
:104EA0004023C0F20F03C91842F10002C0E900120A
:104EB00012E0FEF747FF410529D400058DD540F2E9
:104EC0002E60C2F200000088002804BF012020707C
:104ED00083E74FF47A60286028680130286000205A
:104EE00020602868B0F57A6F28BFFCF7E7FCFDF773
:104EF0004FF9FCF72DFBFCF743FD40F24060C2F296
:104F000000000068BDE8B04000B10047704740F2C3
:104F10009140C2F2000000780121002821703FF486
:104F20005CAF01F07BF858E7FEE7FDF7D5FDFEE743
:104F30002DE9F04381B057690029984655D0507B40
:104F400000F00F00072850D08946092819D1B9F17F
:104F5000000F16D03846FBF788F93844471C012467
:104F60004E4600BF3878FD280BD8013E4DD038465C
:104F7000651CFBF77AF93844471CA0B248452C461B
:104F8000F0D30026EEBBB8F1000F2CD0292340F25D
:104F90006C3009FB03F3C2F200001F0B6426417A58
:104FA00007FB169701EB1331FBB2CD25827A6B43D9
:104FB000DD0A02EBD32205EB8503067BA7EB430357
:104FC000D0E90075007A43F03003C8F80070C8F8E3
:104FD000045088F8080088F8091088F80A2088F832
:104FE0000B3088F80C600C260BE03846FBF73DF9D7
:104FF000B8F1000F86B204D0404639463246FBF77E
:1050000010F9304601B0BDE8F0833846FBF72DF9C2
:10501000B8F1000F86B218BF002EB3D04046394613
:105020003246FBF7FEF8ADE7828902F47062B2F512
:10503000006F04D10069002918BF0630704700696D
:1050400001EB410100EB4100704700002DE9F04108
:105050004B7B0028024603F00F0C18BF0122BCF165
:10506000070F05D14FF0000E1FFA8EF0BDE8F0815A
:1050700000284FEA021E00F05B800022062340F267
:10508000622806E06C88A644904203F1060300F013
:105090004F800D69BCF1080F14BF1D4406352E88E2
:1050A0000132F71E2C2F29D8DFE807F0172C3E1706
:1050B0002C2C3E3E173E3E3E3E3E3E3E3E3E3E3E5B
:1050C0003E3E3E3E3E3E3E3E172C3E3E3E3E3E3E39
:1050D0003E3E3E3E3E3E3E172C000EF10F07824202
:1050E00027F00F0ED0D2B6F5187F01D00B2E01D1CC
:1050F0006C88A6440EF1100EC6E700BFA6F2622728
:10510000022F0ED20EF11F07824227F01F0EBFF4AE
:10511000BBAF26F0010444453FF4B4AF0EF1200EBE
:10512000B2E7B6F5187FD8D08242FFF4ABAFABE759
:105130001FFA8EF0BDE8F0812DE9F0418046FCF7C2
:10514000F5F94FF0000EB0B3202101FA08F24FF04C
:10515000000C06E00024210608BF0CF1010C406899
:1051600028B30189B1F5805FF9D3B8F1000FF1D010
:1051700081890027CDB201F470660023444600BF48
:10518000B6F5006F04D10169002B18BF063101E0AC
:105190000169394489880A4218BF74462106DAD069
:1051A000AB4203F1010307F10607E9D3D3E71FFA86
:1051B0008CF0BDE8F0814FF0000C1FFA8CF0BDE8D8
:1051C000F08100000A30704710B50446FCF7AEF9D4
:1051D00005E000BF0189A14208BF10BD406800285A
:1051E000F8D1002010BD0000B2F80CC0CCF30320B1
:1051F00093B1072804BF00207047082810D1906998
:1052000012690078128902235043C21DD008002978
:1052100008BF03EBD200704707281CD1106933E0A8
:105220005FEA0C6020D010B5D2F810E00022012017
:105230005FFA8CFCC3B25B0053FA80F30EEB4303BE
:105240005B880130C4B264451A44F3D9D01DC0084C
:10525000BDE8104009E0002904BF0120704708287C
:1052600007D11069008910E00020002908BF023032
:1052700070475FFA8CF088423CBF0020704710698D
:1052800001EB410100EB410040880730C008704746
:105290002DE9F04F81B08946098840F2486E9A4660
:1052A00090468346B1F5805FC2F2000E0DD10A9D93
:1052B0007446FCF73BF9002D014647D0A64631B9AC
:1052C0001B202870002121B943E0DEF800100029DE
:1052D0003FD0B8F1020F3DD3202000FA0BF000BF01
:1052E000B1F808C0BCF5805F29D3BBF1000F1FD017
:1052F0008B890027DDB203F470665B46B6F5006F5C
:1053000004D13C060C6918BF063406E0FAB20C69F9
:10531000520052FA87F204EB4204A288104218BFEE
:1053200000231A0405D00137FAB29542E6D200E014
:1053300000231A0404BF2AF802CBA8F10208496826
:1053400041B11FFA88F2012ACAD803E0A646002913
:10535000BFD10021002914BF08894FF6FF70A9F8BA
:1053600000001FFA88F0CEF8001001B0BDE8F08F01
:105370002DE9F04F89B09D89DDF84CE0129C2F4655
:10538000B0F5805FC5F3032904D3B9F1070F01D04D
:105390009F693F78BEF1000F5FFA87FA16D0B0F52B
:1053A000805F4FF00506C0F0EE81B9F1070F574658
:1053B00000F0E981D3F81CC0BCF1000F14D02346E3
:1053C000CDF848E009B0BDE8F04F60478A4501D20A
:1053D0001126D8E105F47067B7F5006F2CD11F696D
:1053E000002918BF06372CE00022B2EB103F3BD15A
:1053F000D1B318699A6901EB410705F4706300EBBA
:105400004707B3F5006F08BF871D02EB810050F816
:10541000041C7888CA0700F1070240F07F810888E1
:105420006FF003032080488804316080201D03EB67
:10543000D202FAF7F6FE91E11F6901EB410607EB94
:105440004607BF88B7B140F22066C2F20006367840
:1054500007F0070C16EA4C0F0F46ABD11A26BCF129
:10546000000F08BF06268EE18F424FF0000803D2DE
:10547000002080E1052686E17A1CCDE904A9CDF85B
:105480001CE0089200228B4606920392D3F818C0C3
:10549000B0F5805F4FF0000211D3BBF1000F0ED0CA
:1054A0005FFA8BF2824610460F4619461D46664645
:1054B000FFF7CCFDB4462B463946024650469F893D
:1054C00007F47067B7F5006F06D15FEA0B670CD081
:1054D0001F6907F1060A0BE05FFA8BF61F69760079
:1054E00056FA8BF607EB460A02E0D3F810A000BF8D
:1054F00040F22066C2F20006BAF80470367806EA76
:10550000470717F00E0F17D08B454FF0000738BF35
:1055100001278B451FBF079EB6FA86F6760957EA24
:1055200006072ED1059F072F38D0BBF1000F35D1CC
:10553000049A24F8022B24E0170708BFA4F800807F
:10554000BAF802703E0704D03A44120708BF24F8A4
:10555000028FBAF8022012F0F00F0AD0002200BF2A
:1055600024F8028FBAF802700132C7F3031797428A
:10557000F6D8BAF8042052074FF01A0208BF0622E4
:10558000069201254E46002D00F0EA80089A0BF1A4
:10559000010B9345B1467FF479AFE4E0BAF800E03F
:1055A000BEF5E06F0FD3BAF80270082F02D807F1EA
:1055B0002F0E08E0102F04D0202F08BF4FF0070E49
:1055C00001E04FF0060E17090CEB470C1826BEF150
:1055D000370F4FF0000500F25480DFE80EF08C1D0D
:1055E0001D73481D7348485757571C1C1C1C1C7AB8
:1055F0001C1C1C7A1C1C1C1C1C7A1C1C1D73481CAB
:105600001C1C1C1C1C1C1C1C1C1C1C1D73481D1D54
:105610001D1D1D1D1D1DB6E7BAF8027049F6342682
:10562000C0F6000636F817E012F00F06BCF800507E
:1056300008BFA4F8008027880EFA06FC039725FA15
:1056400006F7079E05EA0C05002E08BF0EEA0705BF
:10565000039F26462F4326F8027BBAF802703A448D
:10566000120708BF34460122012503928AE7120778
:1056700031D1BCF800202280BCF8022062800434C2
:10568000F1E7AEF51877042FBFF47DAF120722D1F2
:105690000290BAF80200CDE900130730C208204694
:1056A0006146FAF7BEFDBAF802000109000704EBF3
:1056B000410401D02078208001200390DDE900130F
:1056C00002985EE7120706D1BCF8002024F8022BEE
:1056D000C9E7120701D0052655E7BCF80020228053
:1056E000BCF802206280BCF80420A280BCF806202E
:1056F000E2800834B7E7079F002F3FF444AFBAF8C1
:1057000002703A441207224608BF02323E07C7F32E
:10571000031708BF224602EB4704A4E74FF6FE73C7
:10572000092803EA010310D31009A11E023B00BFA0
:10573000DE789F1C21F8026F9D88013846EA052318
:105740000B803B46F4D18C1CBB1C100706D560783F
:1057500001022180597841EA00202080002612E0D1
:105760004FF000080BE0DDF80C80B8F1000F18BF17
:105770004FF001080698B8F1000F08BF0646B8F1CF
:10578000000F18BF0026F0B209B0BDE8F08F00008E
:105790002DE9F04F8DB08E4699891F46DDF85C905B
:1057A000169BC1F30325072DCEB20C9605D03E46BD
:1057B000BF693C78ACB1374600E00024B9F1000F76
:1057C00003D0072D05D1052064E274451ED21120B7
:1057D00060E2BC46BEF1000F37D1002A18BF1C782A
:1057E00033E041F61047C71BBFB2202F374619D30D
:1057F00000F47E48B8F5B05F14D04FF23007B842DD
:1058000014BFB8F5D05F0C9C3746D7E701F4706140
:10581000BC46B1F5006F07D13969BEF1000F18BF62
:10582000063106E00C9CC9E73F690EEB4E0107EB21
:10583000410140F220678988C2F200073E7801F0FA
:10584000380716EA970F74462FD0BEF1000F19D013
:1058500041F61041411A89B220290BD300F47E4150
:10586000B1F5B05F06D04FF23007B84218BFB1F5BE
:10587000D05F07D1DCF8181067460978B1FA81F1DA
:10588000490901E001216746D7F820C0BCF1000FAB
:1058900006D07146CDF858900DB0BDE8F04F604786
:1058A00042B1744508D20720F4E1002F00F0E681F0
:1058B0001A20EFE10020EDE1049141F63041089516
:1058C000411A009020F001004FF230020190E043B5
:1058D000CFF6FF72704402F57B620A9007200990B0
:1058E00090B2039088B2029040F6583400201E46D1
:1058F000C2F200044FF00008CDF82CE0CDE90570AD
:10590000B889D7F818B000F47060B0F5006F0EEBEE
:10591000080A05D15FEA0A600BD03869851D09E0E5
:105920005FFA8AF13869490051FA8AF100EB4105C2
:1059300000E03D695FFA8AF03946FFF787FB40F2E5
:105940002062C2F20002A988127802EA910111F0E5
:105950000E0F2BD05146BAF1000F18BF0109DDF828
:105960002CE00022F24538BF0122B8F1000F1EBF23
:10597000B9FA89F35B0952EA030234D10246089866
:1059800007280BEB410021D0BAF1000F1ED132885D
:105990000C9DD1B28D4227BF0280023613200790A2
:1059A0000C98884280F00F8100201DE0DDF82CE08B
:1059B000BAF1000F14D069880A0703D00844000721
:1059C00008BF0236080906EB40060AE02988B1F54F
:1059D000E06F1BD36B88082B11D803F12F0115E062
:1059E0000236182009900120002800F04C810A9806
:1059F00008F1010810EB08007FF482AF45E1102B9D
:105A000003D0202B08BF072100E00621CB464FF032
:105A1000180C37294FF0000300F27580DFE811F011
:105A2000DD00380038008600590038008600590033
:105A30005900770077007700CE00CE00CE00CE0070
:105A4000CE00B600CE00CE00CE00B600CE00CE0016
:105A5000CE00CE00CE00B600CE00CE0038008600CC
:105A60005900CE00CE00CE00CE00CE00CE00CE003B
:105A7000CE00CE00CE00CE00CE0038008600590009
:105A80003800380038003800380038003800380056
:105A9000698849F63423C0F6000333F8111002F088
:105AA0000F0E078801FA0EF3B6F800A0BBF1000F45
:105AB00027EA030C1AD00AEA0301079F41EA0C0106
:105AC00001806888104400074FF0010008BF0236CB
:105AD00013E011075CD10499079F002900F08D8025
