:020000040800F2
:10000000983700209D0100086946000895370008D0
:1000100065460008690F0008C97800080000000064
:10002000000000000000000000000000C16B00089C
:100030004519000800000000B55600085175000879
:10004000B7010008B7010008B7010008B7010008B0
:10005000B7010008B7010008B7010008B7010008A0
:10006000B7010008491D0008511D0008B70100082C
:10007000B7010008B7010008B7010008B701000880
:10008000B7010008B7010008B7010008B701000870
:10009000B7010008B7010008B7010008591D0008A2
:1000A000B7010008B7010008B7010008B701000850
:1000B0001D760008B7010008B7010008B701000865
:1000C000B7010008B7010008B7010008B701000830
:1000D000B7010008B7010008B7010008B701000820
:1000E000B7010008B7010008B7010008B701000810
:1000F000B7010008B7010008B7010008B701000800
:10010000B7010008B7010008B7010008B7010008EF
:10011000B7010008B7010008797600088576000865
:10012000B7010008B7010008B7010008B7010008CF
:10013000B7010008B7010008B7010008B7010008BF
:10014000B7010008B7010008B7010008B7010008AF
:10015000B7010008B7010008B7010008B70100089F
:10016000B7010008B7010008B7010008B70100088F
:10017000B7010008B7010008B7010008000000003F
:10018000B7010008B7010008DFF80CD000F094F8C0
:1001900000480047ED78000898370020064880475F
:1001A00006480047FEE7FEE7FEE7FEE7FEE7FEE75C
:1001B000FEE7FEE7FEE7FEE7097600088901000892
:1001C0002DE9F05F0546002092469B46884606468C
:1001D000814640241BE0284641464746224600F01F
:1001E0005AF853465A46C01A914110D31146184640
:1001F000224600F041F82D1A67EB01084F462246CF
:100200000120002100F038F817EB00094E41201EB4
:10021000A4F10104DFDC484631462A464346BDE8E6
:10022000F09F40EA01039B0703D009E008C9121FB1
:1002300008C0042AFAD203E011F8013B00F8013BA0
:10024000521EF9D27047D2B201E000F8012B491ECC
:10025000FBD270470022F6E710B513460A46044663
:100260001946FFF7F0FF204610BD421C10F8011B95
:100270000029FBD1801A7047202A04DB203A00FABB
:1002800002F1002070479140C2F1200320FA03F3ED
:10029000194390407047202A04DB203A21FA02F0EB
:1002A0000021704721FA02F3D040C2F120029140B0
:1002B00008431946704700001CB5094800900948DA
:1002C00001900546009C06E0E06840F0010394E8D8
:1002D000070098471034AC42F6D3FFF759FF0000EF
:1002E000148600083486000870B58C1810F8015B7D
:1002F00015F0070301D110F8013B2A1106D110F8BF
:10030000012B03E010F8016B01F8016B5B1EF9D1C2
:100310002B0705D40023521E0DD401F8013BFAE748
:1003200010F8013BCB1A921C03E013F8015B01F8B3
:10033000015B521EF9D5A142D8D3002070BD000048
:100340002DE9F04F85B040F2086840F2BE33C2F2AA
:100350000008C2F200034FF0FF3240F2744A98F8EE
:1003600000701A80C2F2000A01225FEAC0698AF8AE
:1003700000200BD400F00F02012A4FF00F0218BF2B
:1003800017F0100303D005B0BDE8F08FEF2200F0A6
:100390000F0B4BEA07143A40E7B20220812F4FF0CF
:1003A0000006019188F8002000F33080A7F11201C7
:1003B000362900F23980DFE801F034373737373734
:1003C0003737373737373737373734371C373737DB
:1003D00037373737373737373737373737373737AD
:1003E0003737373737373737373734372F373737A8
:1003F0002F0040F2146040F21661C2F20000C2F217
:10040000000100F083FC064670B905E0822F08D099
:10041000842F01D0882F07D140F21260C2F2000071
:10042000007801F03BF80646002E4FD098F8000007
:10043000022815D004280FD0082840F0D48000F0FE
:1004400091FD40F27740C2F200000021017040F2BD
:100450007940C2F20000017000F080FD06F0F4FE69
:10046000162E40F0BD8003F011FE00F079FD4FF430
:1004700080700DF10A05ADF80A00284640F6060125
:10048000022203F019F800BF284640F606010222B6
:1004900002F0AAFFBDF80A00C005F5D54FF4807040
:1004A00003ADADF80C00284640F60E01022203F021
:1004B00003F800BF284640F60E01022202F094FF26
:1004C000BDF80C00C005F5D501208AE06FF01000E2
:1004D00040F20A6150FA84F0C2F20001002277284B
:1004E0000A8000F213821325DFE810F0C3017A01BD
:1004F0007E00780010021002100278001002100234
:100500001002100210021002100210025E01C90156
:100510007800DC01100210021002780010021002B4
:100520001002100210021002100210026301780083
:10053000100278001002100210027800100210025F
:100540001002100210021002100210025201BB0130
:100550007800C901100210021002040210021002F9
:1005600010021002100210021002100210021002FB
:1005700010021002100210021002100210021002EB
:1005800010021002100210021002100210021002DB
:1005900010021002100210021002100210021002CB
:1005A00010021002100210021002100210021002BB
:1005B00010021002100210021002100210021002AB
:1005C0001002100210021002100210023E01A701D8
:1005D00078006A01100210021002C901112503E01F
:1005E000022088F800003546FF2D1CD140F27A40E9
:1005F000C2F20000012101706FF0110040F20A61A7
:1006000050FA84F2C2F20001E0B2022A08805AD302
:1006100040F2BE334828C2F2000301D0242859D149
:1006200042F2283057E098F8000000F00F015945D9
:1006300015D140F27A40C2F2000000210DF11204FF
:100640000170ADF8121020464FF49A71022202F0A8
:1006500033FF98F80000ADF8120020467CE0019FBF
:1006600055EA07014DD040EA0B00000749D540F29A
:100670007944C2F20004207840B100F073FC40F2EB
:100680007740C2F2000000210170217040F2166034
:10069000C2F20000008858B34FF480700DF10E06CE
:1006A000ADF80E00304640F61601022202F004FFBB
:1006B000304640F61601022202F096FEBDF80E000A
:1006C000C005F5D51DE040F2BE334FF4FA60C2F22A
:1006D000000300E0C82049F69911CFF6FF714143AD
:1006E0008A1402EBD1710844188005B0BDE8F08F80
:1006F00040F21460C2F20000008810B1032001F043
:1007000023F94FF6FF705DB198F80010082904BF77
:10071000042188F8001098F8001041F0100B04E054
:10072000002F1CBF0BF1100B3D4640F27A41C2F284
:1007300000010022854288F800B00A70ADF8105020
:1007400005D004A84FF49A71022202F0B5FE98F881
:100750000000ADF8100004A84FF49871022202F0D6
:10076000ABFE05B0BDE8F08F00F0FCFB054640F2A3
:100770007740C2F200000021017040F27940C2F2DD
:100780000000002D01708AF800107FF42DAF412485
:1007900000F0E4FB054606F057FD0020002D8AF826
:1007A00000007FF421AF212403F070FC00F0D8FB9F
:1007B000054640F28B40C2F200000021017013E7B1
:1007C00000F0D0FB40F27740C2F20000002101703F
:1007D00040F27940C2F2000001708AF8001002E78E
:1007E00007F058F840F2BA30C2F200000078002852
:1007F00008BF5126002E7FF4F6AE03F0F3FB05464A
:1008000060B900208AF8000000F0A4FB054628B972
:1008100040F27F40C2F2000001210170002D3FF440
:10082000E3AEFF2D3FF4E0AE9AF80000002808BFC9
:1008300000F096FB03F02AFCD6E600F093FB064698
:1008400040F27740C2F200000021017040F279408E
:10085000C2F20000002E01708AF800107FF4C3AECF
:10086000422400F07BFB06F0EFFC00208AF8000039
:10087000B9E640F28B40C2F2000000210170B9F1EC
:10088000000F02D5384600F009FA98F8000010F081
:100890000C0F48D040F21660C2F200000088B8B3D6
:1008A00002203CE006F014FA0546A0B940F24C766E
:1008B0000020C2F200068AF80000304600F048FB33
:1008C000054640B9308806F0DDF940F27840C2F2C2
:1008D000000001210170002D3FF486AEFF2D3FF492
:1008E00083AE9AF80000002808BF00F037FB06F03E
:1008F000ABFC79E640F27D40C2F200000078A0B186
:1009000040F25470C2F20000058830E012256BE618
:1009100040F21460C2F20000008820B1032001F010
:100920001FFAFE2560E6FE255EE640F27640C2F242
:100930000000007858B140F20660C2F20000C82101
:10094000018040F20460C2F200000021018040F208
:100950000870C2F200000021018580F8401040F2CA
:10096000C460C2F20000FF25018580F8401065B91F
:1009700000208AF8000000F0EFFA054628B940F29E
:100980007940C2F2000001210170002D3FF42CAE2D
:10099000FF2D3FF429AE9AF80000002808BF00F0B0
:1009A000E1FA40F27740C2F200000021017040F20B
:1009B0007940C2F20000017016E6000070B582B006
:1009C00040F27A44C2F200042078002800F06481EA
:1009D00040F2BE30C2F2000040F20A660188C2F264
:1009E00000063088002941D0A0F1120102296CD301
:1009F000242800F09380482840F0828040F2744020
:100A0000C2F20000017800297AD040F27641C2F2A9
:100A100000010978002900F0BE8040F20661C2F2B0
:100A20000001B1F900300025012BC0F20B8140F22A
:100A30000462C2F20002B2F90060B3424FF0000655
:100A400000F301810D801580057000F085FAFF2804
:100A500000F0F880002800F0B38000F083FA40F244
:100A60007740C2F2000000250570E6E0A0F1120117
:100A700002294FEA101545D324286DD0482840F0AC
:100A8000E18040F27640C2F200000078002800F0D9
:100A9000A08040F27540C2F200000078002800F00B
:100AA000A78040F2166140F27740C2F20001C2F224
:100AB0000000098800781A26090418BF1B261A218D
:100AC000002818BF0E4600209DE040F27440C2F29C
:100AD000000001780025002900F0B480057000F0C6
:100AE00039FAFF2800F0AE8000284ED140F27F4056
:100AF0003288C2F200000121017002F00F05A1E06E
:100B000000259FE040F27440C2F200000078002807
:100B100008BF00F025FA03F0B9FA28E040F274406B
:100B2000C2F2000001780025002900F08B800570DA
:100B300040F24C70C2F2000000F00AFAFF2800F008
:100B4000818000284ED140F27840C2F2000001219D
:100B500001700026042576E040F27440C2F20000E5
:100B60000078002808BF00F0F9F906F06DFB40F2AC
:100B70007D40C2F2000040F254710078C2F20001E0
:100B80000E88002808BF01265DE000F0E9F903F0B7
:100B90007DFA002556E040F21661C2F20001098894
:100BA00040F27746C2F200064FF0000511B13178ED
:100BB000002947D0057000F0CFF9FF2842D0C0BB14
:100BC00040F27940C2F200000121017000260825A0
:100BD00039E040F21660C2F20000008858B11B26CE
:100BE000002010E000F0BAF906F02EFB002529E005
:100BF0002D26002007E040F27941C2F200010120D9
:100C0000002608250870F0B940F27440C2F20000D6
:100C10000078002808BF00F0A5F940F27740C2F242
:100C200000000021017040F27940C2F20000017022
:100C300009E000F097F90025357040F27940C2F2E2
:100C4000000005700026280626D00020207040F203
:100C500008643004C2F2000418BF45F01005207883
:100C6000E9B28842B0B24FF6FF71ADF8066018BF26
:100C70002570884206D00DF106004FF49A710222C9
:100C800002F01AFC20784FF49871ADF806000DF1CF
:100C90000600022202F010FC02B070BD7047000096
:100CA000B0B540F24235C2F20005A87841F2000426
:100CB000C4F2020400F001022046012101F090F983
:100CC000A8780221C0F34002204601F089F92046AD
:100CD0004FF4807101F076F940F23E35C2F2000522
:100CE000A97800F0010001F0FE010844A870204638
:100CF0004FF4007101F066F9A97800F0010001F0ED
:100D0000FD0141EA4000A870B0BD00002DE9F04FA0
:100D100083B040F29E3AC2F2000ABAF800508B4605
:100D2000002D029018BF012534D0BAF8020003F05C
:100D3000EBFD4FF0000780B306464FF0000800BF00
:100D4000B069B0F80090B9F1000F0ED0002400BFD8
:100D50000134B569E0B2314603F018FD000915F819
:100D60001000A1B249450744F2D3BAF8000008F1D7
:100D7000010880454FF0000538BF01250FD20AEB6E
:100D80004800408803F0C0FD06460028D8D100275F
:100D9000252009E00020002706E0252004E00720A8
:100DA00010FA87F0C7080020002D4FF000013DD158
:100DB000CDF804B040F2A83BC2F2000BBBF8002013
:100DC00092B300250024009005E000BFBBF80000AE
:100DD0000135854223D20BEB4500408803F094FD9A
:100DE000D0B106468069B0F80080B8F1000FEDD0B0
:100DF0004FF0000909F10109D6F818A05FFA89F04F
:100E0000314603F0C3FC00091AF810001FFA89F1FB
:100E100041450444EED3D9E70024242000E00098A3
:100E2000072111FA84F1C908DDF804B0029A118093
:100E3000ABF8007003B0BDE8F08F000040F2A831BD
:100E4000C2F200010A8840F23E3CC2F2000C7AB1C4
:100E5000002300BF01EB430252880133B2F5D05F9B
:100E600004BFBCF8022020F8022B0A889342F1D379
:100E70009CF8020040F29C3CC2F2000C9CF800106E
:100E800000F003038B4208BF704700F00101C0F37C
:100E9000400202A08CF8003006F0E0BD50444F2024
:100EA000494E2020737769746368313D257520733E
:100EB0007769746368323D2575207261773D3078BB
:100EC000253032580D0A000080B540F29E32C2F241
:100ED0000002118840F2423CC2F2000C61B1931C46
:100EE00041F2016E33F8022B724504BF30F8022B39
:100EF000ACF802200139F5D19CF8020040F29D3C8B
:100F0000C2F2000C9CF8001000F003038B4208BFF3
:100F100080BD00F00101C0F3400203A08CF8003056
:100F2000BDE8804006F09ABD50444F204F555420F4
:100F30006C6564313D2575206C6564323D257520F6
:100F40007261773D3078253032580D0A000000007C
:100F50000020704700207047002070470020704735
:100F60000020704700207047FEE7000010B540F2F7
:100F70002C64C2F20004206828B1002102F0D2FEE5
:100F80000020206010BD802006F0E2FF78B140F222
:100F90006441C2F200018A898B6882810A684968CB
:100FA00083604160026005F067F8002010BD0720F3
:100FB00010BD000040F2C430C2F20000006870476B
:100FC00040F22C60C2F200000021016040F2186083
:100FD000C2F20000018070472DE9F04F81B040F26D
:100FE0003464C2F200042668002E51D040F25E78CC
:100FF00040F28C7940F2787A40F2446540F28A4BB4
:10100000C2F20008C2F20009C2F2000AC2F20005F0
:10101000C2F2000BB8F8000099F80010DAF80020CE
:101020002B689BF800700097B047FF2830D040F243
:101030008B77C2F200073978CA1E022A17D301291A
:1010400012D0022918D140F23C61C2F200010968B5
:1010500051B10646084606F053FF40F23C62304666
:101060000021C2F2000211600021002202E0DAF841
:1010700000102A6805F058F900203870A8F8000020
:1010800089F80000CAF8000028608BF80000206092
:1010900001B0BDE8F08F000010B540F24C10C2F274
:1010A000000001894FF6FF7C40F2C43EC2F2000E00
:1010B00000206145CEF800003AD040F24C13C2F255
:1010C000000300BFDEF80040C4B12089884207D980
:1010D0000020C3E900042360CEF8003022E000BF06
:1010E0002089884210D0224612D85468002CF7D1AB
:1010F00000205360C3E9002014E000BF0020CEF8B8
:101100000030C3E900000DE00120002161B90FE0CB
:101110001068C3E900021068002818BF436013601C
:10112000002000BF012119B1198E28336145C9D1B2
:10113000002844D140F20C00C2F200000189614550
:1011400004BF002010BD40F20C03C2F2000304E013
:10115000198E2833614508BF10BDDEF80040BCB1D0
:101160002089884206D90020C3E900042360CEF814
:10117000003021E02089884210D0224613D85468DC
:10118000002CF7D100205360C3E9002014E000BF19
:101190000020CEF80030C3E900000DE0012000215E
:1011A0000029D5D10BE01068C3E9000210680028BF
:1011B00018BF43601360002001210029C8D110BD71
:1011C00070B582B040F208704AF22013C2F20000FB
:1011D0002021002644F21F02C0F20703C0E90016D6
:1011E0008281C0E9043686830662866280F84060A8
:1011F00040F2C460C2F20000C0E900168281C0E97A
:10120000043686830662866280F8406040F28B4036
:10121000C2F200000670FFF73FFF50B340F2C43047
:10122000C2F20000016811B34FF0000C12E000BFE1
:10123000D3E90052002D18BF6A60002A18BF15605C
:10124000C3F800C00568C3F804C02D89AC4208BFCC
:10125000026061B103680A464968002BF9D012891F
:101260001C899442E4D05B68002BF9D1F1E700219E
:10127000016040F28B70C2F20000067040F28A40BA
:10128000C2F20000067040F25E70C2F200000680FA
:1012900040F28C70C2F20000067040F27870C2F228
:1012A0000000066040F24460C2F20000066040F2B6
:1012B0003460C2F20000066040F23C60C2F20000FE
:1012C000066001A808210422019602F08DF89DF81D
:1012D000040000070FD440F27240C2F20000012166
:1012E000017040F26C70C2F200004FF411610422F0
:1012F00002F07AF805E040F27240C2F200000021EC
:10130000017040F26470C2F200004FF47A61016033
:1013100002B070BDC1884FF0FF3202EB1132072AD4
:101320000CD80421DFE802F00408040404040406D5
:101330000846704704F0A0BE04F012BA0521084622
:101340007047000010B582B040F27240C2F2000057
:101350000078D0B140F28074C2F2000420684FF4EB
:101360001161019001A8042202F03EF840F26C7174
:10137000C2F2000101980B686268984220603CBF8D
:101380000132C4E90002086008E040F28070C2F255
:1013900000004FF41161082202F026F840F2647058
:1013A000C2F200000021016002B010BD40F20870DE
:1013B000C2F20000418D40F27C33C2F200030029EA
:1013C00018BF0121028D1B8992B29BB29A424FF045
:1013D000000240F2C46C88BF01221143C2F2000C2B
:1013E00080F84010BCF82A10BCF828000022002920
:1013F00080B218BF0121984288BF012241EA020051
:101400008CF840007047000010B582B040F2B83050
:10141000C2F20000008840F27944C2F20004F0B148
:101420000020ADF806000DF106004FF4886102229D
:1014300001F0DAFFBDF80600C00710D140F21660D7
:10144000C2F20000008850B1207810B104201B21A6
:1014500020E040F27740C2F200000021017040F22B
:101460007640C2F20000007868B1207858B140F2AE
:101470007540C2F20000007838B140F28940C2F2F3
:101480000000007820B102B010BD04202C2101E042
:1014900004201A21FEF754FF02B010BD2DE9F041DF
:1014A00040F21061C2F20001098841F6FF729142D8
:1014B0003CBF1420BDE8F08140F2D235C2F20005F5
:1014C000044628464FF40061082201F08DFFE888A9
:1014D000C00702D11627002017E0A888162700F0C1
:1014E0000E0006284FF000000FD169884FF6A37256
:1014F000813989B2914208D32988B1F5805F04D33C
:10150000B1F5005F3CBF0120002710B3284640F62C
:101510000801082201F068FFE888C00702D14FF0F7
:10152000160817E0A8884FF0160800F00E000228F1
:1015300010D168884FF6A371813880B2884209D3F0
:101540002888B0F5805F05D30021B1EB503F18BF6C
:101550001627B846042C55D3B8F1000F52D140F2EB
:101560007347C2F2000701203870284640F6180180
:10157000082201F039FFE9886A882888C90702D063
:101580000AB904213AE059B3442A4FF0040135D88E
:1015900040F21463C2F200031B889A422ED16BB34F
:1015A000AA8812F00C0F29D140F20861C2F20001A2
:1015B0000978022904D100F47043B3F5805F0AD0A2
:1015C00002294FF0040119D040F20C63C2F200036B
:1015D0001B88984212D1900744BF002038700CE05D
:1015E00040F21460C2F200000088000418BF4FF0FF
:1015F0000408002A18BF4FF004084146002918BF0C
:101600001E218846032C5BD3B8F1000F58D1284621
:101610004FF40161082201F0E7FEE9886A88288812
:10162000C90702D00AB9042146E0B9B3442A4FF0F1
:10163000040141D840F21663C2F200031B889A42AB
:101640003AD1CBB3AA8802F00C010429EBD140F2C5
:101650000861C2F200010978022904D100F4704344
:10166000B3F5805F0AD002294FF0040124D040F284
:101670000E63C2F200031B8898421DD140F28C41D8
:10168000C2F38010C2F200019207087013D540F235
:101690007340C2F20000002101700CE040F21660BD
:1016A000C2F200000088000418BF4FF00408002AAE
:1016B00018BF4FF004084146002918BF1D21884675
:1016C000B8F1000F18D140F21267C2F20007387863
:1016D000844211D240F2C836C2F20006E0B2C00025
:1016E00000F500612846082201F07EFEE8880134FA
:1016F000308038788442F1D34046BDE8F081000064
:10170000222900F289800022DFE801F057123C59BB
:101710008686868686868686868686868686868669
:1017200086868686868686868686868686867400F1
:1017300040F21661C2F20001098841F6324290423D
:1017400009D141B140F20872C2F2000292899207B7
:1017500044BF0020704741F6334290425CD140F2D2
:10176000C460C2F200008089800755D5002953D19A
:1017700040F21460C2F20000008800281CBF002064
:10178000704749E041F6334188420ED041F632417C
:10179000884241D140F20871C2F2000189894907AB
:1017A0000BD441F63341884236D140F2C460C2F2D4
:1017B00000008089400758BF12221046704741F64A
:1017C000334188420ED041F63241884224D140F262
:1017D0000871C2F2000189890907EED441F633414C
:1017E000884219D140F2C460C2F20000808900072B
:1017F000E3D411E041F6334188420DD140F2C46098
:10180000C2F200008089800706D540F21660C2F25D
:10181000000000880028D0D1122210467047000036
:10182000B0B54EF2001CCEF2000C4FF4007ECCF8A6
:1018300080E0BFF34F8F40F27640BFF36F8FC2F26C
:1018400000000078002860D040F27840C2F200002A
:101850000078002859D040F2CC31C2F2000140F2A9
:10186000CA32C2F20002098810884B1E84B29DB2AF
:101870000023A54228BF012304D38C423EBF013080
:101880001080012340F27542C2F20002137083B14E
:1018900040F2D030C2F20000008850B140F2CE31A8
:1018A000C2F200010B88834227BF00201070581C31
:1018B0000880107800B340F2087040F27C31C2F228
:1018C0000000C2F20001008D0989884220D240F256
:1018D0000661C2F20001B1F9001040F28940C2F283
:1018E00000000122012902700FDB40F20460C2F205
:1018F00000000188013120E040F28940C2F200007E
:10190000017800291CBF00210170CCF800E0B0BDB7
:1019100040F28940C2F2000001780029F5D040F27F
:101920000661C2F20001B1F900200021012A017014
:10193000EBDB40F20460C2F200000180CCF800E072
:10194000B0BD000070470000B0B582B0C0004FF4D9
:10195000807100F606040DF10605ADF80610284664
:101960002146022201F0A8FD28462146022201F06C
:101970003BFDBDF80600C005F6D502B0B0BD0000C5
:1019800040F27A40C2F20000007848B140F2BE3026
:10199000C2F20000B0F900100129A4BF0139018092
:1019A00080B5FFF73DFF40F27240C2F200000078C0
:1019B00040F2647C40F28071C2F2000CC2F200017D
:1019C000BDE8804030B10A684FF64033CFF6E1738E
:1019D0009A420BD8D1E9002344F24020C0F20F0014
:1019E000801843F10002C1E9000203E04FF47A607D
:1019F000CCF80000DCF800000130CCF800007047A3
:101A00002DE9F04784B00DF106044FF000082046A0
:101A100004210222ADF8068001F0E6FC9DF80700E3
:101A200040F21269C2F2000989F80000204606213E
:101A3000022201F0D9FCBDF8060040F6FF7101EB6F
:101A4000802040F21061C2F20001088002A840F23A
:101A500002510222ADF8088001F0C6FCBDF8080072
:101A600099F8001000F4C050B0FA80F0002940F25C
:101A7000BA314FEA5010C2F2000108701FD00026A0
:101A80004FF4807A40F606070DF10A0447EAC600D3
:101A900085B2204629460222ADF80AA001F00CFDCD
:101AA00020462946022201F09FFCBDF80A00C0052D
:101AB000F6D5013699F80000B1B28142E6D302F0C2
:101AC00031F840F27440C2F2000080F8008040F229
:101AD0007A40C2F2000080F8008040F27740C2F203
:101AE000000080F8008040F27940C2F2000080F8E7
:101AF000008040F27840C2F2000080F8008040F29E
:101B00008C40C2F2000080F8008040F2B830C2F28F
:101B10000000A0F8008040F2CA30C2F20000A0F835
:101B2000008040F2CC30C2F20000A0F8008040F209
:101B3000CE30C2F20000A0F8008040F2D030C2F2F5
:101B40000000A0F8008040F27640C2F2000080F869
:101B5000008040F27D40C2F2000080F8008040F238
:101B60005470C2F20000A0F8008040F24C70C2F243
:101B70000000A0F8008040F21660C2F20000A0F859
:101B8000008040F21460C2F2000040F20865A0F844
:101B90000080C2F20005012003AC287020464FF4FB
:101BA0009A710222ADF80C8001F086FC28784FF47F
:101BB0009871ADF80C002046022201F07DFC40F245
:101BC0000A60C2F20000A0F8008040F27B40C2F23E
:101BD000000080F80080FFF7F3F90DF10E042046B5
:101BE0004FF40171022201F0FFFB4EF20015CEF21C
:101BF00000054FF40076ADF80E80C5F88060BFF3A5
:101C00004F8F20464FF401710222BFF36F8F01F016
:101C100053FC2E6004B0BDE8F087000070B582B0C0
:101C20000020ADF806000120ADF8040002F05CF9D8
:101C300040F27F45C2F20005287828B101A840F69D
:101C40000E01022201F0D0FB01F09EFC40F27A4628
:101C50000446C007C2F200060FD0307868B90DF113
:101C600006004FF49071022201F0BEFB9DF80600C1
:101C7000002124F01104FEF763FBE00610D5307854
:101C800070B940F20860C2F200000078012807D065
:101C900010F0100104D100F00F000021FEF750FBFE
:101CA0003078002818BFFEF789FE2878002848D031
:101CB000BDF80400C00709D140F20860C2F200007C
:101CC0000078002100F00F00FEF73AFBA0050FD5C9
:101CD00040F26070C2F200000021018040F25271B7
:101CE000C2F200010988022201F0E6FB01F092FF36
:101CF00040F27E44C2F200042078BDF804100028AF
:101D000001F0020118BF0120B0EB510F13D001F018
:101D1000D7FF2078BDF80410002818BF012021F457
:101D2000007141EA4020ADF8040001A840F60E0120
:101D3000022201F0C1FB01F027FCC00548BF01F001
:101D4000C5FD02B070BD0000082000F067B80000BB
:101D5000102000F063B80000802000F05FB80000A1
:101D6000B0B582B0C000002100F606040DF10605F2
:101D7000ADF8061028462146022201F09DFB00BF67
:101D800028462146022201F02FFBBDF80600C005BF
:101D9000F6D402B0B0BD0000EFF3108072B600BF01
:101DA000FEE7000010B540F2D234C000C2F20004D9
:101DB00000F500612046082201F016FB204610BD08
:101DC000B0B5044600F012F9054640F2B030C2F258
:101DD00000000078611C18BF044400BF00F006F941
:101DE000401BA042FAD3B0BD80B580280CD010288B
:101DF00006D0082818BF80BD03F0F0FA082006E0DE
:101E000005F0E4FA102002E005F080FB802043F6A4
:101E10001441C4F20101086080BD000043F6144182
:101E2000C4F201010A68024214BF08607047FFF75C
:101E3000DBBF00002DE9F04F83B000F1200200F17C
:101E40003E4741F60045009207F1FF77C4F20205D4
:101E500008224FEAB726A84208BF0722072E38BF3C
:101E60004FEAB72200274FF0000A4FF00008019216
:101E70000AE000BF08F101080AF1020AB8F1100FE8
:101E800007F1040700F09B800D68012202FA08FCAC
:101E900015EA0C09EED04D68032205F0030BABF1F7
:101EA0000106012E02FA0AFE10D88668CC6826EADE
:101EB0000E0604FA0AF4344384604468C5F300153E
:101EC00024EA0C0605FA08F52E434660BBF1030F21
:101ED0001BD0C6688D6826EA0E0605FA0AF52E4361
:101EE000BBF1020FC66010D16FF00302009D02EA41
:101EF000580655F806C007F01C040F220B69A240D3
:101F00002CEA0202A3401A43AA5102684B6822EA53
:101F10000E0203F0030606FA0AF6324313F4403FBA
:101F20000260A7D0002243F644030292C4F20203E7
:101F30001A6843F6004442F480421A601A68C4F2F8
:101F4000010402F480420292029A28F003024FF642
:101F5000084C2244CFF6FF7C52F80C3007F00C06F8
:101F60000F25B540AB43019D05FA06F6334342F811
:101F70000C3022684B6842EA0906DD0358BF22EAAA
:101F80000906266062689D0342EA090658BF22EAF4
:101F900009066660A268DD0242EA090643F60C45BE
:101FA00058BF22EA0906A660C4F201052A689B020E
:101FB00042EA090658BF22EA09062E605AE703B032
:101FC000BDE8F08F0069084018BF0120704700008D
:101FD000426902EA0103914341EA0341816170478A
:101FE000002A08BF090481617047000040F2907028
:101FF000C2F200000068704740F2B03040F29071C9
:10200000C2F20000C2F2000100780A6810440860C1
:102010007047000080B543F60040C4F2020001683A
:1020200041F400710160016841F480610160016860
:1020300041F480710160032000F08CF8002000F072
:1020400005F800F02BF8002080BD0000B0B540F28C
:10205000B032C2F2000240F254311278C2F20001F2
:102060004FF47A730968B3FBF2F20446B1FBF2F164
:10207000084600F07FFE0F2C4FF001050CD858B930
:102080004FF0FF3021460022002500F037F840F2E3
:10209000B430C2F2000004602846B0BD82B0002017
:1020A00043F640010190C4F202014A6842F48042C2
:1020B0004A604A6802F480420192019A00900868DE
:1020C00040F080500860086800F080500090009850
:1020D000052002B000F03EB8002848BF704700F06D
:1020E0001F01012202FA01F11C2202EAD0004EF285
:1020F0000012CEF2000281507047000010B54EF67B
:102100000C5CCEF2000CDCF80030C3F3022E8EF033
:102110000704042C28BF0424BEF103034FF0FF3E44
:102120000EFA04F438BF0023A14399400EFA03F3DA
:102130009A43114300F1604200F00F03090102F5D8
:102140006442043B6344002848BF03F10C02117051
:1021500010BD00004EF60C51CEF200010A684FF699
:10216000FF031A4060F30A2242F0806040F0FD70E5
:102170000860704770470000002804BF01207047C6
:102180002DE9F04143F60808C4F202080446D8F8E5
:10219000F8030D4600F00700814207D988F8F8538C
:1021A000D8F8F80300F00700A84276D1206881072C
:1021B00017D5410705D5D8F8001041F4E051C8F80B
:1021C0000010010705D5D8F8001041F46041C8F8A7
:1021D0000010D8F80010A26821F0F0011143C8F8EF
:1021E0000010C0073FD1D8F8F80300F0070085427F
:1021F00007D288F8F853D8F8F80300F00700A8428F
:102200004BD12068410707D5D8F80010E26821F4C7
:10221000E0511143C8F80010000708D5D8F80000B5
:10222000216920F4604040EAC100C8F8000000F0D5
:1022300081F8D8F8001047F6E072C1F30311C0F638
:102240000002515C40F2543220FA01F140F2B43005
:10225000C2F200000068C2F200021160FFF7F6FE51
:102260000020BDE8F0816068811E022907D258F87D
:10227000081C89015CBF0120BDE8F08110E0012845
:1022800007D158F8081C89035CBF0120BDE8F08124
:1022900006E058F8081C890702D40120BDE8F08147
:1022A000D8F8001021F003010843C8F80000FFF738
:1022B0009DFE064641F28837D8F80000616800F0BC
:1022C0000C00B0EB810F8ED0FFF790FE801BB84260
:1022D000F2D90320BDE8F0814C20C4F2472001214F
:1022E0000160704740F2543043F60801C2F200002A
:1022F000C4F202010068096847F6F072C1F3822156
:10230000C0F60002515CC8407047000040F25430F3
:1023100043F60801C2F20000C4F202010068096835
:1023200047F6F072C1F34231C0F60002515CC8407A
:102330007047000010B543F60404C4F2020461685B
:10234000C1F3810142F20040C0F2F400DFE801F085
:102350000203080210BD41F20020C0F27A0010BD55
:10236000216801F03F02216823684902C3F3881104
:1023700005D4A1FB00010023FDF722FF06E041F296
:102380000020C0F27A004843B0FBF2F0216802223C
:10239000C1F3014102EB4101B0FBF1F010BD0000BF
:1023A00010B543F60C04C4F202042068000658BFBE
:1023B00010BDFFF7DFFE8020A07010BD002804BF15
:1023C000012070472DE9F04182B00446007843F6C1
:1023D0000006C007C4F2020649D0B06800F00C0045
:1023E000042809D13068800341D5606800283ED1B7
:1023F000012002B0BDE8F081B06800F00C000828B0
:1024000002D170684002EDD465683068B5F5A02F40
:1024100005D0B5F5803F09D140F480300CE040F4A0
:1024200080203060306840F4803005E020F4803057
:102430003060306820F480203060FFF7D7FD002D39
:10244000054611D03068800311D4FFF7CFFD401B43
:102450006428F7D928E100BFFFF7C8FD401B6428B6
:102460004FF0030000F2E08030688003F4D420785D
:1024700080071BD5B06810F00C0F09D0B06800F0D1
:102480000C00082840F085807068400200F18180CF
:102490003068800703D5E068012840F09A803068F2
:1024A000216920F0F80040EAC10030602078000780
:1024B00034D42078400746D4A5695DB3B06800F0F5
:1024C0000C00082840F09C80012D00F0828070688C
:1024D000E16900F480028A427BD1216A00F03F0268
:1024E0008A4276D147F6C071626A0140B1EB821F21
:1024F0006FD1A16A4FF6FF73C903994300F44032CC
:10250000A1F580318A4264D1E16A00F07060B0EBDD
:10251000016F5ED1002002B0BDE8F0816069002843
:102520005BD00020C4F247200121C0F8801EFFF7D5
:102530005DFD0546706F8007BBD4FFF757FD401B5C
:102540000228F7D9B0E0306C5FEAC0080AD4002056
:102550000190306C40F080503064306C00F080505E
:102560000190019847F20007C4F200073868C005DF
:1025700026D4386840F480703860FFF737FD054690
:102580003868C0051CD4FFF731FD401B0228F7D97D
:102590008AE0E068002840F20000C4F2472053D0EF
:1025A00001210160FFF722FD054600BF306880076A
:1025B0003FF575AFFFF71AFD401B0228F6D973E00F
:1025C000A568306F052D51D0012D56D140F0010086
:1025D00059E0012002B0BDE8F0810020C4F247209C
:1025E0000021C0F8801EFFF701FD0546706F8007CF
:1025F0007FF55FAFFFF7FAFC401B0228F6D953E0E6
:102600000027C4F2472700203866FFF7EFFC022DB1
:1026100005460DD1306880015DD5FFF7E7FC401B12
:1026200002284FF00300F5D902B0BDE8F08100BFE9
:10263000306880017FF56EAFFFF7D8FC401B0228A1
:102640004FF00300F4D9EFE700210160FFF7CEFC63
:10265000054600BF306880077FF528AFFFF7C6FC4E
:10266000401B02284FF00300F4D9DDE740F00400DE
:102670003067306F40F0010005E020F00100306766
:10268000306F20F004003067FFF7B0FC002D0546E6
:1026900041F2883713D000BF306F800712D4FFF7A4
:1026A000A5FC401BB842F7D9032002B0BDE8F08179
:1026B000FFF79CFC401BB8424FF00300B4D8306FCA
:1026C0008007F5D4B8F1000F3FF5F6AE306C20F07E
:1026D00080503064F0E604F11C052FCD084340EA39
:1026E0008210D9034FF6FF729143A1F5803140EA81
:1026F00005600843706001203866FFF777FC0446E8
:10270000306880013FF506AFFFF770FC001B022820
:102710004FF00300F4D987E770B528B1416A29B1B9
:1027200000210161142106E0012070BD4168B1F56E
:10273000827F02D01C21002242500026866290F83F
:10274000511029B980F85060054600F03DF8284640
:10275000022180F8511090E82E0002F482720C6879
:1027600003F4044324F040040C601A4405F40063AD
:1027700005691A4405F0020345691A4405F001038E
:102780008569C4691A4405F400731A4404F03803D7
:10279000046A1A4404F08003846A1A4304F4005360
:1027A0001A430A60436A042202EA154203F0100346
:1027B0001A444A60CA6922F40062CA61012146656E
:1027C00080F85110304670BD80B586B043F60041A8
:1027D0000068C4F20001002288420592CDE903227C
:1027E0000292019201D006B080BD43F63000009203
:1027F000C4F20200036943F400430361036903F474
:1028000000430093009B0092036843F004030360BD
:10281000006800F00400009000984FF4E050019030
:102820000220CDE90202032004900620059001F564
:10283000E63001A9FFF7FEFA06B080BD2DE9F043AE
:1028400081B0044640681D461746B0F5827F0E46AB
:1028500002D1A06800285AD094F85000012803D172
:10286000022001B0BDE8F0834FF0010984F85090D8
:10287000FFF7BCFB94F85110012946D18046002E89
:102880004FF0010018BF002F77D0042084F85100CA
:1028900000206065A663A787E7872063A086E0869F
:1028A000A1682064B1F5004F606408D12068016818
:1028B00021F040010160016821F48041016020683D
:1028C0000168490603D4016841F040010160E168F4
:1028D000E08F49B3002843D06E1C09E0C068A16BAB
:1028E00021F8020BA163E08F0138E087E08FB8B3D5
:1028F00020688168C907F1D1FFF778FB002EF5D079
:10290000A0EB0800A842F1D328E0022035E0042023
:1029100084F851002046314632463B46009500F08F
:1029200017F901B0BDE8F083D0B16E1C0AE0007B5E
:10293000A16B0870A06B0130A063E08F0138E087C5
:10294000E08F68B120688168C907F0D1FFF74EFBBE
:10295000002EF5D0A0EB0800A842F1D303200CE034
:1029600020462946424604F097F800281CBF202044
:102970006065606D002818BF0120002184F8519027
:1029800084F8501001B0BDE8F08300002DE9F04359
:1029900083B0044690F85000012803D1022003B010
:1029A000BDE8F0834FF001081D460F46164684F837
:1029B0005080FFF71BFB94F8511001295DD181462F
:1029C000002F4FF0010018BF002E00F0B880032048
:1029D00084F85100002060652763A686E686A06320
:1029E000A087E087A2683146B2F5004FC4E9100025
:1029F00008D12068026822F040020260026842F4B6
:102A00008042026020680268520603D4026842F0E5
:102A10004002026062680139E368B2FA82F2B1FAF8
:102A200081F152094909B3F5006F41EA020126D14B
:102A300031B137F8021BC1602763E08E0138E086B0
:102A4000E08E002841D06F1C0AE000BF216B31F8F6
:102A5000022BC2602163E08E0138E086E08EA0B3D5
:102A6000206881688907F1D4FFF7C0FA002FF5D0FC
:102A7000A0EB0900A842F1D325E002205FE039B1C4
:102A800039780173206B01302063E08E0138E086D5
:102A9000E08ED0B16F1C0AE0216B09780173206BC6
:102AA00001302063E08E0138E086E08E68B1206856
:102AB00081688907F0D4FFF799FA002FF5D0A0EBD1
:102AC0000900A842F1D3032039E040F25430C2F2A9
:102AD0000000006849F68171C1F25E61A0FB01014E
:102AE000480D4FF47A71484302906068B0F5827FD8
:102AF0000ED1204680212A464B4603F0F9FF80B1D3
:102B0000606D40F0200060652020606509E000BF36
:102B1000029830B10298013802902068806800065F
:102B2000F6D4A06838B9002001902068C1680191EE
:102B3000806801900198606D002818BF0120002175
:102B400084F8518084F8501003B0BDE8F083000091
:102B50002DE9F04383B0044690F85000012803D1DA
:102B6000022003B0BDE8F08301201E4615460F4643
:102B700084F85000FFF73AFA94F851108146012981
:102B80006BD1002F4FF0010018BF002D00F0AF8077
:102B9000002E00F0AC8094F85100002104281CBFE6
:102BA000052084F851006165A563E687A687276341
:102BB000E6862068A686216461640168490603D41C
:102BC000016841F0400101606168731EE268B1FA7A
:102BD00081F1B3FA83F3DDF8288049095B09B2F586
:102BE000006F41EA030147D131B137F8021BC160E0
:102BF0002763E08E0138E086012608F1010500BF59
:102C0000E08E10B9E08F00287AD0206881688907AB
:102C10000CD5E18E51B1012E08D1216B002631F87F
:102C2000022BC2602163E18E0139E1868168C90708
:102C30000AD0E18F41B1C068A16B012621F8020BD7
:102C4000A163E08F0138E087FFF7D0F9002DD7D0DE
:102C5000A0EB09004045D3D348E06068B0F5827F1F
:102C600008D104294FF0020041D1A16800293FF4A6
:102C700088AF3CE002203AE039B139780173206B2B
:102C800001302063E08E0138E086012608F101055D
:102C9000E08E08B9E08F98B32068816889070DD568
:102CA000E18E59B1012E09D1216B002609780173FB
:102CB000206B01302063E08E0138E0862068816857
:102CC000C9070BD0E18F49B1C068A16B012608701C
:102CD000A06B0130A063E08F0138E087FFF786F931
:102CE000002DD5D0A0EB09004045D1D30320012110
:102CF00084F85110002184F8501003B0BDE8F0832F
:102D000040F25430C2F20000006849F68171C1F20D
:102D10005E61A0FB0101480D4FF47A7148430290B7
:102D20006068B0F5827F0ED12046802142464B4636
:102D300003F0DEFE80B1606D40F020006065202071
:102D400060650120D3E7029830B102980138029003
:102D5000206880680006F6D4A06800284FF00000C4
:102D6000C5D101902168CA680192896801910199D1
:102D7000BDE70000411E0020B0EB116F1CBF012019
:102D800070474EF21002CEF2000251604EF623510F
:102D9000CEF20001F0230B700721906011607047A4
:102DA000704700007047000090F83C20012A4FF067
:102DB000020255D010B5012380F83C3080F83D2048
:102DC0000268D2F804E0D2F808C00C682EF0700354
:102DD000234341F2FF74C4F20004A24253600DDCAD
:102DE00040F2FF73C4F200039A4215DCB2F1804F47
:102DF00029D040F20043C4F2000322E040F2FF3346
:102E0000C4F201039A4212DC41F60003C4F200034B
:102E10009A4218D0002312E040F60003C4F20003E7
:102E20009A4210D040F60043C4F2000309E044F295
:102E30000003C4F201039A4205D040F20043C4F2F9
:102E400001039A4204D149682CF080031943916030
:102E50000121002280F83D1080F83C20BDE81040A0
:102E600010467047002804BF0120704710B5044683
:102E700090F83D0028B9002084F83C00204600F07E
:102E80001FF8022084F83D002068211D04F000FC9A
:102E9000012084F8460084F83E0084F83F0084F85E
:102EA000400084F8410084F8420084F8430084F82C
:102EB000440084F8450084F83D00002010BD000067
:102EC00010B584B00068B0F1804F35D041F20041B8
:102ED000C4F2000188421BD041F20001C4F200019B
:102EE00088421CBF04B010BD0020039043F6400090
:102EF000C4F202000168012241F010010160006883
:102F0000032100F01000039003983620362426E0B9
:102F10000020029043F64000C4F202000168002243
:102F200041F0200101600068012100F020000290C2
:102F300002983720372412E00020019043F6400029
:102F4000C4F202000168002241F001010160006842
:102F5000022100F00100019001981C201C24FFF7C1
:102F6000CDF8204604B0BDE81040FFF7B5B800002A
:102F700090F83D1001291CBF01207047022180F804
:102F80003D10006841F2FF72C168C4F20002904235
:102F900041F00101C1600DDC40F2FF71C4F200019B
:102FA000884215DCB0F1804F29D040F20041C4F2D4
:102FB000000122E040F2FF31C4F20101884212DC3C
:102FC00041F60001C4F20001884218D0002112E04D
:102FD00040F60001C4F20001884210D040F60041E2
:102FE000C4F2000109E044F20001C4F20101884288
:102FF00005D040F20041C4F20101884206D1816847
:1030000001F00701062904BF00207047016841F064
:1030100001010160002070477047000010B50446B0
:1030200000680169890744BFC1685FEA81713FD4C4
:1030300020680169490744BFC1685FEA417143D410
:1030400020680169090744BFC1685FEA017148D47B
:1030500020680169C90644BFC1685FEAC1614CD4F8
:1030600020680169C9071CBFC1685FEAC17151D1FD
:1030700020680169090644BFC1685FEA016150D454
:1030800020680169490644BFC1685FEA41614FD4C5
:1030900021680869800646BFC8685FEA806010BD85
:1030A0006FF0200220460A61BDE81040FFF77ABEAB
:1030B0006FF00201016101212177806980073ED014
:1030C0002046FFF7A9FF40E06FF0040101610221F3
:1030D0002177806910F4407F3AD02046FFF79CFFAB
:1030E0003CE06FF00801016104212177C06980078D
:1030F00037D02046FFF790FF39E06FF010010161F3
:1031000008212177C06910F4407F33D02046FFF7B3
:1031100083FF35E06FF001010161204600F038F8CF
:10312000A6E76FF0800101612046FFF739FEA7E7AF
:103130006FF040010161204600F02CF8A8E720461E
:1031400000F022F8204600F021F8002020776FE7F9
:10315000204600F019F8204600F018F800202077EB
:103160006EE7204600F010F8204600F00FF800202F
:1031700020776DE7204600F007F8204600F006F8BB
:10318000002020776CE700007047000070470000C7
:103190007047000070470000002804BF01207047FE
:1031A00010B5044690F83D0028B9002084F83C0092
:1031B000204600F021F8242084F83D002068C168F2
:1031C00021F40051C160204604F0F4FA206801693E
:1031D00021F490410161416921F02A014161C168F6
:1031E00041F40051C16000202021206484F83D108A
:1031F00084F83E1010BD000080B586B041F2000199
:103200000068C4F20101002288420592CDE9032240
:103210000292019201D006B080BD43F630000092C8
:10322000C4F20200436943F010034361436903F0B1
:1032300010030093009B0092036843F001030360B6
:10324000006800F00100009000984FF4C060019009
:103250000220CDE90202032004900720059001F529
:10326000704001A9FEF7E6FD06B080BD2DE9F043F0
:1032700081B0044690F83D0020280DD10E4600296B
:103280004FF0010018BF002A02D101B0BDE8F08361
:1032900094F83C00012803D1022001B0BDE8F0837E
:1032A000012084F83C00002020642120994684F805
:1032B0003D001546FEF79AFEA584E584A168804688
:1032C000B1F5805F02D12069002855D0374600262D
:1032D000002084F83C00E08C002842D009F1010570
:1032E0000AE000BF97B117F8010B21684860E08C35
:1032F0000138E084E08CA0B3206800680006F1D4B7
:10330000BDB1B9F1000F0ED116E000BF36F8020BC7
:1033100021686FF35F2048600027E8E7016809062D
:10332000E0D4002DFAD0FEF761FEA0EB080048457E
:1033300002D82068F2E700BF206850E8030F216838
:1033400020F4D07041E80302002AF5D1206850E84B
:10335000050F216820F0010041E80502002AF5D19F
:103360000CE020680068400637D4B9F1000F1FD088
:1033700019F101050ED014E00027A9E7202084F8F8
:103380003D0084F83E00002084F83C00032001B09A
:10339000BDE8F083206800BF016849061DD4002DF8
:1033A000FAD0FEF723FEA0EB08004845F2D900BF93
:1033B000206850E8030F216820F4D07041E8030230
:1033C000002AF5D1206850E8050F216820F001009F
:1033D00041E80502002AF5D1D0E7202084F83D001D
:1033E000002001B0BDE8F083002A08BF70472DE936
:1033F000F04117460D4606464FF000080FE000BFAB
:103400000124EFF3108072B6A2B2304603F05AF8EE
:103410003F1B16FA84F63804254462B616D0A9B2CA
:10342000B8EB113F3C46ECD1B8B20428044628BFA3
:103430000424CA07E4D18A0703D4032808BF01245F
:10344000DFE704F00100C0F10204DAE7BDE8F04173
:1034500070470000002A08BF70472DE9F041174669
:103460000D4606464FF000080BE000BF0124A2B253
:10347000304603F027F83F1B16FA84F6380425443B
:1034800016D0A9B2B8EB113F3C46F0D1B8B204282F
:10349000044628BF0424CA07E8D18A0703D40328B6
:1034A00008BF0124E3E704F00100C0F10204DEE7F5
:1034B000BDE8F04170470000002A08BF70472DE9C1
:1034C000F04117460D4606464FF000080FE000BFDA
:1034D0000124EFF3108072B6A2B2304603F0A4FAD2
:1034E0003F1B16FA84F63804254462B616D0A9B2FA
:1034F000B8EB113F3C46ECD1B8B20428044628BFD3
:103500000424CA07E4D18A0703D4032808BF01248E
:10351000DFE704F00100C0F10204DAE7BDE8F041A2
:1035200070470000002A08BF70472DE9F041174698
:103530000D4606464FF000080BE000BF0124A2B282
:10354000304603F071FA3F1B16FA84F6380425441E
:1035500016D0A9B2B8EB113F3C46F0D1B8B204285E
:10356000044628BF0424CA07E8D18A0703D40328E5
:1035700008BF0124E3E704F00100C0F10204DEE724
:10358000BDE8F04170470000B0B50024EFF31080B3
:1035900072B6C4F2020420464FF400410022FEF746
:1035A0001FFD40F2BC35C2F2000528464FF40871F9
:1035B000022202F087FF20464FF400410122FEF76D
:1035C0000FFD62B62888B0BDB0B50024C4F2020475
:1035D00020464FF400410122FEF702FD00BF00BF6C
:1035E00020464FF40041002200BFFEF7F9FC40F2F4
:1035F000BC35C2F2000528464FF40871022202F0E1
:1036000061FF20464FF400410122FEF7E9FC2888C3
:10361000B0BD000070B582B040F60044C4F20204B0
:103620002046042100220025FEF7DAFC3220FEF7B6
:10363000C7FB204604210122FEF7D2FC3220FEF710
:10364000BFFB04F08DF993260DF10604ADF806607A
:10365000EFF3108072B620464FF40171022203F09E
:10366000E3F962B6ADF80650EFF3108072B620466B
:103670004FF40171022202F025FF62B6BDF8060088
:103680009328E3D1542040F2011103F093F85C2019
:10369000012103F08FF8582002F046FF0020ADF81A
:1036A0000600EFF3108072B60DF106004FF40171C1
:1036B000042203F0B9F962B600F096F84EF2001455
:1036C000CEF200044FF40070206000F0B3F800F078
:1036D000D7F84FF4806020604FF40000206000F0C5
:1036E0005BF840F27850C2F20000FFF741FC4FF067
:1036F00080502060002062B602B070BD70470000AC
:1037000040F27640C2F200000078002818BF7047EF
:1037100070B582B040F26874C2F2000426685EB3ED
:10372000002568464FF4116104220095FFF792FED0
:10373000009828B1B0423ABFF1430844801B00E032
:10374000002040F27C71C2F200010968411A40F287
:103750000870C2F20000426828BF0D46511EA942FF
:10376000256028BF456040F2C460C2F20000416895
:103770000139A94228BF45600020019001A84FF4FB
:1037800011610422FFF766FE0198206002B0BDE8D7
:1037900070407047FEE7000010B582B040F27850EC
:1037A000C2F200004FF080410024292240F2CF7382
:1037B00080E816008021CDE90044C3608161FFF7F5
:1037C00051FB002818BFFEF7E7FA40F27850C2F22A
:1037D00000006946CDE90044FFF7E6FA002818BF6B
:1037E000FEF7DAFA02B010BD80B586B00020019075
:1037F00043F63000C4F20200016841F008010160A4
:10380000006801A900F008000190019808200190CB
:103810004FF4041002900120039040F60040C4F2DF
:103820000200FEF707FB092001210022FEF766FCDB
:1038300006B080BD80B586B00020019043F6300010
:10384000C4F20200016841F008010160006801A9AA
:1038500000F0080001900198102001904FF404102E
:1038600002900120039040F60040C4F20200FEF7EF
:10387000E1FA0A2001210122FEF740FC06B080BDDA
:1038800080B586B00020019043F63000C4F20200FB
:10389000016841F008010160006801A900F008001A
:1038A00001900198802001904FF4041002900120B3
:1038B000039040F60040C4F20200FEF7BBFA172066
:1038C00001210122FEF71AFC06B080BDF0B581B0DF
:1038D00040F25075C2F2000529880DF10200022263
:1038E000FFF782FD40F28140C2F20000007801281B
:1038F00041D10A2004F02CFBE8B340F20863C2F285
:103900000003002104221B78016002804FF4803202
:10391000426003F00F02012A4FF00702028128D013
:1039200040F28976C2F2000632788180520704BFE5
:1039300001213170317804460903818000F07AF862
:103940000146204691B140F29061C2F200014A88DE
:103950008B88571CBCB2E31A18BF3B460F889CB239
:10396000A74206D001EB820290604B803178013192
:10397000317004F0C5FABDF8020040F28872811D72
:1039800040F28840C2F20002C2F2000012780078D1
:10399000D2B21043ADF8021007D040F28240C2F21A
:1039A00000000121017001B0F0BD40F25674C2F276
:1039B000000440F282472088C2F20007002289B248
:1039C00081423A7088BFADF8020004F0C1FA40F2BB
:1039D0005466C2F20006306038B32988BDF8022070
:1039E000FFF702FD0027684640F604010222ADF809
:1039F0000070FFF7F9FCBDF80000ADF80000BDF85D
:103A0000000000050CD540F26070C2F20000078093
:103A1000298822881144023989B20222FFF7E4FC86
:103A2000306800F0D9F901B0F0BD0120387001B064
:103A3000F0BD000040F20861C2F20001097801F017
:103A40000F0101294FF0F00169D040F27F42C2F22C
:103A500000021278002A62D02DE9F04381B040F2D2
:103A60008844C2F20004217809B1072154E0028899
:103A700040F25278C2F20008B8F80010971DBAB2AE
:103A80008146FFF719FD00260DF1020040F60C01FA
:103A90000222ADF80260FFF7A7FCBDF80200ADF806
:103AA0000200BDF80200000525D440F25870C2F2B1
:103AB0000000058840F26072E81B81B2C2F2000289
:103AC000012916800BD8C0F1020027F0010182B253
:103AD00040F260704944C2F20000FCF7A2FBB8F863
:103AE000000002222844023881B240F26070C2F223
:103AF0000000FFF7E1FC40F24860C2F200000168FC
:103B000029B140F25461C2F2000100220A60C0F8FB
:103B1000009001200021207001B0BDE8F04308466C
:103B200070470000B0B582B040F25670C2F200009B
:103B30002421018040F25870C2F2000080210180EF
:103B400040F25070C2F200004FF48051018040F208
:103B50005270C2F20000018040F25C60C2F20000CC
:103B600000250A210560818040F29060C2F20000C9
:103B70000560818040F25460C2F20000056040F2AE
:103B80004C60C2F20000056040F24860C2F20000E2
:103B9000056040F25060C2F20000056040F27E40D5
:103BA000C2F200000DF106040570204640F60E0139
:103BB0000222ADF80650FFF717FCBDF8060040F6EC
:103BC0000E0120F40070ADF8060020460222FFF737
:103BD00073FC40F27F40C2F20000057040F2884062
:103BE000C2F20000057040F28240C2F2000005708F
:103BF00040F28870C2F20000057040F28A70C2F292
:103C00000000057040F28970C2F20000057002B039
:103C1000B0BD0000B0B540F24C65C2F200052868A6
:103C200040F2884140F25064C2F200010022C2F228
:103C300000040A7028B1216819B904F061F9002064
:103C4000286040F24861C2F20001206809682960DA
:103C500020B1FFF7EFFE0020206017E040F29061F6
:103C6000C2F200010A884888824201D1002009E09E
:103C700001EB820001328B88806895B2EB1A18BF85
:103C800013460B80002818BFFFF7D4FE40F288745B
:103C9000C2F200042078810710D500F0FD0140F247
:103CA0005460C2F2000000682170FDF75FF900283F
:103CB00008BFB0BD207840F002002070B0BD000009
:103CC000F0B581B040F24C65C2F200052C68F4B149
:103CD00040F28846C2F20006307898B140F2506750
:103CE000C2F20007386868B90120FDF72DFE40F2E6
:103CF0004860C2F20000006838600120FEF730F82A
:103D0000002030702046FFF795FE0020286040F22A
:103D10007E40C2F200000178B1FA81F149090170D8
:103D200001B0F0BDF0B581B040F20862C2F200020D
:103D300012780C4602F00F01012902D1F02001B0E7
:103D4000F0BD40F289758188C2F200052A786FF3D0
:103D50001F315207818004BF01222A702A7807464A
:103D600041EA02318180FFF765FEA8B140F2906020
:103D7000C2F2000043888288591C8EB2B61A18BF5E
:103D80000E460188B2B291420BD1072091420FD06A
:103D90002978013129700DE0287801302870002041
:103DA00008E000EB8303468000209F609142EFD142
:103DB00064F07F0461B2B1F1FF3F01DD01B0F0BDFD
:103DC00040F28871C2F200010A7804F07F031A43BE
:103DD0000A7001B0F0BD000070B502888188812AA8
:103DE00014D3042240F208630280C2F200031B785D
:103DF00021F47062828003F00F02012A40F2010276
:103E0000C0F20802C0F8062040D170BD40F28A7CA2
:103E10000A0BB1F5805FC2F2000C07D39CF80030AA
:103E20009A4203D1BDE8704004F06AB840F25C6E7B
:103E3000C2F2000EBEF80240BEF80450631C9EB2EF
:103E4000761B18BF1E46BEF80050B3B29D428CF8D8
:103E5000002001D1072205E00EEB840290600022D1
:103E6000AEF802609D4218BF70BD042340F20866A0
:103E70000380C2F2000621F4706336788380012348
:103E8000C38006F00F03012B0281BED040F289747B
:103E9000C2F200042278C9B25207818004BF012215
:103EA00022702278054641EA02318180FFF7C2FD87
:103EB000B0B140F29060C2F20000418882884B1C91
:103EC0009EB2B21A18BF1A46038896B2B3429CD06B
:103ED00000EB81018D6021784280481C207070BD0C
:103EE00020780130207070BD2DE9F04740F25C650C
:103EF00040F2086940F2897640F29067C2F200050C
:103F00004FF004084FF0010AC2F20009C2F20006A5
:103F1000C2F2000705E000BF307801303070002C9D
:103F200052D02888698888420CD10024B4B1A08876
:103F300000F47060B0F5407F14D12046FDF7EAF937
:103F400098B9ECE705EB80018C680130A98882B252
:103F5000511A18BF01462980002CE8D1002020B951
:103F6000DDE700BF02200028D9D0A188A4F8008096
:103F700021F47062A28099F80020A4F806A002F053
:103F80000F02012A2081CAD03278C8B25107A0801E
:103F900008BF86F800A0317840EA0130A0802046B2
:103FA000FFF748FD0028B7D07888B988421C93B243
:103FB000591A18BF11463A888BB29A42AFD007EB14
:103FC000800084607980A7E740F28240C2F200005E
:103FD0000078002808BFBDE8F087BDE8F047FFF78C
:103FE00075BC000070B50020FDF7DCFE418840F292
:103FF0005675C2F200052980008840F25074C2F262
:10400000000420800120FDF7CDFE418840F2587267
:10401000C2F20002118022882B8800881344834258
:1040200040F25273C2F20003188004D9084490424F
:1040300084BF162070BD00200024FDF791FE0120F2
:104040000126FDF78DFE288803F082FF40F25465BB
:10405000C2F20005286028B140F28141C2F200019D
:104060000C700CE040F28140C2F2000006700A20A1
:1040700003F06EFFB0FA80F1490928604C0003F0AC
:104080003FFF00202860204670BD0000F0B581B0E1
:1040900040F27F40C2F20000002101700020FDF7D5
:1040A00053FC0120FDF750FC40F24C64C2F20004C6
:1040B0002068002818BF03F023FF40F25065C2F2C9
:1040C0000005286820B12168884201D003F018FF5C
:1040D00040F24867C2F20007386838B12168884268
:1040E00004D02968884201D003F00AFF02F090F959
:1040F00040F25460C2F200000026066040F27E40AA
:104100002660C2F200000DF102040670204640F65F
:104110000E0102223E602E60ADF80260FFF764F9E6
:10412000BDF8020040F60E0120F40070ADF8020068
:1041300020460222FFF7C0F940F28840C2F2000098
:10414000067040F28240C2F20000067040F28870B1
:10415000C2F20000067040F28A70C2F200000670DF
:1041600040F2897040F25C64C2F20000C2F20004C6
:10417000067000BF21886088814203D1002060B9A9
:104180000EE000BF04EB81000131A28880688BB291
:104190009A1A18BF0A46228010B103F0B1FEE9E76F
:1041A00040F29064C2F2000421886088814203D109
:1041B000002060B90EE000BF04EB81000131A2884D
:1041C00080688BB29A1A18BF0A46228010B103F099
:1041D00097FEE9E701B0F0BD2DE9F04F87B000266A
:1041E00043F630000696CDE90466CDE902660196F5
:1041F000C4F20200016840F6004841F0100101607D
:104200000168C4F2020801F01001019101990196C0
:10421000016808F5806541F0040101600168002231
:1042200001F004010191019901960168FF2741F015
:1042300008010160016801F00801019101990196EE
:10424000016841F0010101600068FF2100F00100F8
:10425000019001982846FDF7C3FEA8F5806A5046F4
:104260000C2101224FF00C0B0124FDF7B9FE404652
:1042700048F204010122FDF7B3FEA8F54069484663
:104280004FF400410122FDF7ABFECDE9027402AF0D
:1042900028463946CDE90466FDF7CCFD504639463F
:1042A000CDE902B4CDE90446FDF7C4FD4FF47F40EB
:1042B000CDE90206284639460494FDF7BBFD48F2D5
:1042C000040002901120CDE903040220059040462D
:1042D0003946FDF7AFFD4FF40040CDE9020403205D
:1042E0000590484639460494FDF7A4FD98200290B5
:1042F0004FF40410CDE9030440463946FDF79AFD1A
:1043000007B0BDE8F08F000080B540F2904043F662
:104310000041C2F20000C4F200014FF48272002397
:1043200080E80E0000F114014FF4007C4FF0180EED
:1043300081E808500A21C0E90333C0E90833C0E925
:104340000A31FEF7E9F9002808BF80BDBDE88040CA
:10435000FDF722BD10B582B040F2E84041F2000105
:10436000C2F20000C4F20001002442F2CF02632333
:1043700080E816008021CDE90044C3608161FEF72A
:1043800071FD002818BFFDF707FD40F2E840C2F2BA
:1043900000006946CDE90044FEF706FD002818BF7D
:1043A000FDF7FAFC02B010BD10B582B040F23050FB
:1043B00041F20041C2F20000C4F2000100242922AF
:1043C00040F2E73380E816008021CDE90044C36065
:1043D0008161FEF747FD002818BFFDF7DDFC40F2C4
:1043E0003050C2F200006946CDE90044FEF7DCFC23
:1043F000002818BFFDF7D0FC02B010BD80B540F218
:10440000C05041F20001C2F20000C4F201010023D9
:104410004FF00C0C4FF4E13280E80E00C0E903339A
:10442000C0E905C3C361FEF7B7FE002808BF80BD21
:10443000BDE88040FDF7B0BCF0B583B040F2286025
:10444000C2F2000000240460FDF7DAFAFCF7B8FEBF
:1044500040F27C40C2F200000121017040F2804035
:10446000C2F20000047040F26870C2F20000046002
:1044700040F2707040F27C76C2F20000C2F2000698
:1044800004603460CDE901444FF47A7702AC01ADA9
:1044900020464FF411610422FEF7DCFF28464FF45A
:1044A00011610422FEF7D6FFDDE901104242884285
:1044B00088BFC24333685018591E8142019028BFFB
:1044C0003060013FE4D1002003B0F0BD40F27C40F9
:1044D000C2F200000078002808BF7047B0B540F273
:1044E0007B4040F27744C2F20000C2F20004007840
:1044F000227800280146D2B218BF0121002A18BF35
:104500000122114238D140F27641C2F2000109780D
:1045100091BB00286BD04EF20014CEF200044FF491
:104520000070C4F88000BFF34F8F40F20870BFF3F3
:104530006F8FC2F20000808BC00706D140F2C460CA
:10454000C2F20000808BC00708D040F21660C2F2B1
:1045500000000088002808BFFFF7D2F8FCF7A0FB96
:1045600040F27840C2F200000078002818BF00F046
:10457000D9FF4FF4007020602424C4F200042068A6
:1045800040F26475B0F5FA6FC2F2000547D340F20D
:104590007A40C2F20000007848B140F2BE30C2F268
:1045A0000000B0F900100129A4BF01390180FDF716
:1045B00037F940F27240C2F200000078002840F261
:1045C0008070C2F2000006D001684FF64032CFF68C
:1045D000E17291421BD8D0E9001244F24023C0F2AC
:1045E0000F03C91842F10002C0E9001212E0FEF701
:1045F000CBFF410529D400058DD540F21660C2F2EB
:1046000000000088002804BF0120207083E74FF4D9
:104610007A602860286801302860002020602868BF
:10462000B0F57A6F28BFFCF78DFEFDF7F7FAFCF7BF
:10463000D3FCFCF7E9FE40F22860C2F200000068FB
:10464000BDE8B04000B10047704740F27940C2F287
:10465000000000780121002821703FF45CAF00F0D9
:10466000BDFF58E7FEE70000FDF79AFEFEE70000F9
:104670002DE9F04381B057690029984655D0507B09
:1046800000F00F00072850D08946092819D1B9F148
:10469000000F16D03846FBF7E8FD3844471C0124CC
:1046A0004E4600BF3878FD280BD8013E4DD0384625
:1046B000651CFBF7DAFD3844471CA0B248452C4680
:1046C000F0D30026EEBBB8F1000F2CD0292340F226
:1046D000583009FB03F3C2F200001F0B6426417A35
:1046E00007FB169701EB1331FBB2CD25827A6B43A2
:1046F000DD0A02EBD32205EB8503067BA7EB430320
:10470000D0E90075007A43F03003C8F80070C8F8AB
:10471000045088F8080088F8091088F80A2088F8FA
:104720000B3088F80C600C260BE03846FBF79DFD3B
:10473000B8F1000F86B204D0404639463246FBF746
:1047400070FD304601B0BDE8F0833846FBF78DFDC3
:10475000B8F1000F86B218BF002EB3D040463946DC
:104760003246FBF75EFDADE7828902F47062B2F576
:10477000006F04D10069002918BF06307047006936
:1047800001EB410100EB4100704700002DE9F041D1
:104790004B7B0028024603F00F0C18BF0122BCF12E
:1047A000070F05D14FF0000E1FFA8EF0BDE8F08123
:1047B00000284FEA021E00F05B800022062340F230
:1047C000622806E06C88A644904203F1060300F0DC
:1047D0004F800D69BCF1080F14BF1D4406352E88AB
:1047E0000132F71E2C2F29D8DFE807F0172C3E17CF
:1047F0002C2C3E3E173E3E3E3E3E3E3E3E3E3E3E24
:104800003E3E3E3E3E3E3E3E172C3E3E3E3E3E3E01
:104810003E3E3E3E3E3E3E172C000EF10F078242CA
:1048200027F00F0ED0D2B6F5187F01D00B2E01D194
:104830006C88A6440EF1100EC6E700BFA6F26227F0
:10484000022F0ED20EF11F07824227F01F0EBFF477
:10485000BBAF26F0010444453FF4B4AF0EF1200E87
:10486000B2E7B6F5187FD8D08242FFF4ABAFABE722
:104870001FFA8EF0BDE8F0812DE9F0418046FCF78B
:1048800099FB4FF0000EB0B3202101FA08F24FF06F
:10489000000C06E00024210608BF0CF1010C406862
:1048A00028B30189B1F5805FF9D3B8F1000FF1D0D9
:1048B00081890027CDB201F470660023444600BF11
:1048C000B6F5006F04D10169002B18BF063101E075
:1048D0000169394489880A4218BF74462106DAD032
:1048E000AB4203F1010307F10607E9D3D3E71FFA4F
:1048F0008CF0BDE8F0814FF0000C1FFA8CF0BDE8A1
:10490000F08100000A30704710B50446FCF752FBF6
:1049100005E000BF0189A14208BF10BD4068002822
:10492000F8D1002010BD0000B2F80CC0CCF3032079
:1049300093B1072804BF00207047082810D1906960
:1049400012690078128902235043C21DD008002941
:1049500008BF03EBD200704707281CD1106933E071
:104960005FEA0C6020D010B5D2F810E000220120E0
:104970005FFA8CFCC3B25B0053FA80F30EEB430387
:104980005B880130C4B264451A44F3D9D01DC00815
:10499000BDE8104009E0002904BF01207047082845
:1049A00007D11069008910E00020002908BF0230FB
:1049B00070475FFA8CF088423CBF00207047106956
:1049C00001EB410100EB410040880730C00870470F
:1049D0002DE9F04F81B08946098840F2306E9A4641
:1049E00090468346B1F5805FC2F2000E0DD10A9D5C
:1049F0007446FCF7DFFA002D014647D0A64631B9D0
:104A00001B202870002121B943E0DEF800100029A6
:104A10003FD0B8F1020F3DD3202000FA0BF000BFC9
:104A2000B1F808C0BCF5805F29D3BBF1000F1FD0DF
:104A30008B890027DDB203F470665B46B6F5006F24
:104A400004D13C060C6918BF063406E0FAB20C69C2
:104A5000520052FA87F204EB4204A288104218BFB7
:104A600000231A0405D00137FAB29542E6D200E0DD
:104A700000231A0404BF2AF802CBA8F102084968EF
:104A800041B11FFA88F2012ACAD803E0A6460029DC
:104A9000BFD10021002914BF08894FF6FF70A9F883
:104AA00000001FFA88F0CEF8001001B0BDE8F08FCA
:104AB0002DE9F04F89B09D89DDF84CE0129C2F461E
:104AC000B0F5805FC5F3032904D3B9F1070F01D016
:104AD0009F693F78BEF1000F5FFA87FA16D0B0F5F4
:104AE000805F4FF00506C0F0EE81B9F1070F574621
:104AF00000F0E981D3F81CC0BCF1000F14D02346AC
:104B0000CDF848E009B0BDE8F04F60478A4501D2D2
:104B10001126D8E105F47067B7F5006F2CD11F6935
:104B2000002918BF06372CE00022B2EB103F3BD122
:104B3000D1B318699A6901EB410705F4706300EB82
:104B40004707B3F5006F08BF871D02EB810050F8DF
:104B5000041C7888CA0700F1070240F07F810888AA
:104B60006FF003032080488804316080201D03EB30
:104B7000D202FBF756FB91E11F6901EB410607EBFF
:104B80004607BF88B7B140F20866C2F20006367821
:104B900007F0070C16EA4C0F0F46ABD11A26BCF1F2
:104BA000000F08BF06268EE18F424FF0000803D2A7
:104BB000002080E1052686E17A1CCDE904A9CDF824
:104BC0001CE0089200228B4606920392D3F818C08C
:104BD000B0F5805F4FF0000211D3BBF1000F0ED093
:104BE0005FFA8BF2824610460F4619461D4666460E
:104BF000FFF7CCFDB4462B463946024650469F8906
:104C000007F47067B7F5006F06D15FEA0B670CD049
:104C10001F6907F1060A0BE05FFA8BF61F69760041
:104C200056FA8BF607EB460A02E0D3F810A000BF55
:104C300040F20866C2F20006BAF80470367806EA56
:104C4000470717F00E0F17D08B454FF0000738BFFE
:104C500001278B451FBF079EB6FA86F6760957EAED
:104C600006072ED1059F072F38D0BBF1000F35D195
:104C7000049A24F8022B24E0170708BFA4F8008048
:104C8000BAF802703E0704D03A44120708BF24F86D
:104C9000028FBAF8022012F0F00F0AD0002200BFF3
:104CA00024F8028FBAF802700132C7F30317974253
:104CB000F6D8BAF8042052074FF01A0208BF0622AD
:104CC000069201254E46002D00F0EA80089A0BF16D
:104CD000010B9345B1467FF479AFE4E0BAF800E008
:104CE000BEF5E06F0FD3BAF80270082F02D807F1B3
:104CF0002F0E08E0102F04D0202F08BF4FF0070E12
:104D000001E04FF0060E17090CEB470C1826BEF118
:104D1000370F4FF0000500F25480DFE80EF08C1DD5
:104D20001D73481D7348485757571C1C1C1C1C7A80
:104D30001C1C1C7A1C1C1C1C1C7A1C1C1D73481C73
:104D40001C1C1C1C1C1C1C1C1C1C1C1D73481D1D1D
:104D50001D1D1D1D1D1DB6E7BAF8027048F2D05684
:104D6000C0F6000636F817E012F00F06BCF8005047
:104D700008BFA4F8008027880EFA06FC039725FADE
:104D800006F7079E05EA0C05002E08BF0EEA070588
:104D9000039F26462F4326F8027BBAF802703A4456
:104DA000120708BF34460122012503928AE7120741
:104DB00031D1BCF800202280BCF80220628004348B
:104DC000F1E7AEF51877042FBFF47DAF120722D1BB
:104DD0000290BAF80200CDE900130730C20820465D
:104DE0006146FBF71EFABAF802000109000704EB5E
:104DF000410401D02078208001200390DDE90013D8
:104E000002985EE7120706D1BCF8002024F8022BB6
:104E1000C9E7120701D0052655E7BCF8002022801B
:104E2000BCF802206280BCF80420A280BCF80620F6
:104E3000E2800834B7E7079F002F3FF444AFBAF889
:104E400002703A441207224608BF02323E07C7F3F7
:104E5000031708BF224602EB4704A4E74FF6FE7390
:104E6000092803EA010310D31009A11E023B00BF69
:104E7000DE789F1C21F8026F9D88013846EA0523E1
:104E80000B803B46F4D18C1CBB1C100706D5607808
:104E900001022180597841EA00202080002612E09A
:104EA0004FF000080BE0DDF80C80B8F1000F18BFE0
:104EB0004FF001080698B8F1000F08BF0646B8F198
:104EC000000F18BF0026F0B209B0BDE8F08F000057
:104ED0002DE9F04F8DB08E4699891F46DDF85C9024
:104EE000169BC1F30325072DCEB20C9605D03E4686
:104EF000BF693C78ACB1374600E00024B9F1000F3F
:104F000003D0072D05D1052064E274451ED211207F
:104F100060E2BC46BEF1000F37D1002A18BF1C78F2
:104F200033E041F61047C71BBFB2202F374619D3D5
:104F300000F47E48B8F5B05F14D04FF23007B842A5
:104F400014BFB8F5D05F0C9C3746D7E701F4706109
:104F5000BC46B1F5006F07D13969BEF1000F18BF2B
:104F6000063106E00C9CC9E73F690EEB4E0107EBEA
:104F7000410140F208678988C2F200073E7801F0DB
:104F8000380716EA970F74462FD0BEF1000F19D0DC
:104F900041F61041411A89B220290BD300F47E4119
:104FA000B1F5B05F06D04FF23007B84218BFB1F587
:104FB000D05F07D1DCF8181067460978B1FA81F1A3
:104FC000490901E001216746D7F820C0BCF1000F74
:104FD00006D07146CDF858900DB0BDE8F04F60474F
:104FE00042B1744508D20720F4E1002F00F0E681B9
:104FF0001A20EFE10020EDE1049141F630410895DF
:10500000411A009020F001004FF230020190E0437D
:10501000CFF6FF72704402F57B620A900720099078
:1050200090B2039088B2029040F2087400201E46AD
:10503000C2F200044FF00008CDF82CE0CDE9057075
:10504000B889D7F818B000F47060B0F5006F0EEBB7
:10505000080A05D15FEA0A600BD03869851D09E0AE
:105060005FFA8AF13869490051FA8AF100EB41058B
:1050700000E03D695FFA8AF03946FFF787FB40F2AE
:105080000862C2F20002A988127802EA910111F0C6
:105090000E0F2BD05146BAF1000F18BF0109DDF8F1
:1050A0002CE00022F24538BF0122B8F1000F1EBFEC
:1050B000B9FA89F35B0952EA030234D1024608982F
:1050C00007280BEB410021D0BAF1000F1ED1328826
:1050D0000C9DD1B28D4227BF02800236132007906B
:1050E0000C98884280F00F8100201DE0DDF82CE054
:1050F000BAF1000F14D069880A0703D008440007EA
:1051000008BF0236080906EB40060AE02988B1F517
:10511000E06F1BD36B88082B11D803F12F0115E02A
:105120000236182009900120002800F04C810A98CE
:1051300008F1010810EB08007FF482AF45E1102B65
:1051400003D0202B08BF072100E00621CB464FF0FB
:10515000180C37294FF0000300F27580DFE811F0DA
:10516000DD003800380086005900380086005900FC
:105170005900770077007700CE00CE00CE00CE0039
:10518000CE00B600CE00CE00CE00B600CE00CE00DF
:10519000CE00CE00CE00B600CE00CE003800860095
:1051A0005900CE00CE00CE00CE00CE00CE00CE0004
:1051B000CE00CE00CE00CE00CE00380086005900D2
:1051C000380038003800380038003800380038001F
:1051D000698848F2D053C0F6000333F8111002F08A
:1051E0000F0E078801FA0EF3B6F800A0BBF1000F0E
:1051F00027EA030C1AD00AEA0301079F41EA0C01CF
:1052000001806888104400074FF0010008BF023693
:1052100013E011075CD10499079F002900F08D80ED
:105220003188018071880436418065E0CB43079F57
:105230001AEA030F4FD012270020DDF82CE00028D7
:105240005AD1002359E0A1F51871042956D211074B
:105250003ED169880731CA083146FAF7E2FF68880B
:10526000DDF82CE0000906EB400644E011072FD1E1
:105270000499358811B90188A9426ED1DDE902216E
:1052800000278A4209D305F47E41B1F5B05F04D00E
:10529000002D18BFB1F5D05F62D1019941F63242BD
:1052A000914240F08380BAF1010165D10188A942A1
:1052B0005CD0814600982946FCF722FA0028099024
:1052C00051D0DDF82CE00022074673E0110709D029
:1052D0004FF0050C12E001EA0A0101FA0EF141EA71
:1052E0000C018DE73188018071884180B18881800F
:1052F000F1880836C180079F0123BC463BB1CDF839
:105300001CC0059FD9460121012006910CE7CDF86C
:105310001CC0059F0020D94606E7BBF1000FEDD069
:105320006888079F010703D08118090708BF023664
:10533000C0F3031006EB4006DEE701883288914295
:1053400008D14188728891423FF46AAF4FF01C0C3B
:105350000023D3E74FF01C0CD0E71C27002229E0E4
:105360001227002226E0DDF82CE0484640F28B416F
:10537000C2F2000101220A70BAF1080116D14AF204
:10538000201140F2C4632246C0F20701C2F20003BA
:10539000C2E90417C3E90417A90767605F6005D570
:1053A000976282F840709F6283F84070079F0236D0
:1053B00001220580002A3FF444AF9DE70720002921
:1053C00008BF052006E0079804E006980028099821
:1053D00018BF0020C0B20DB0BDE8F08F40F27B4096
:1053E000C2F200000078002808BFFBF7DFBFF0B56D
:1053F00081B0FEF7E9F840F2087640F2C465400556
:10540000C2F20006C2F2000543D540F27540C2F276
:105410000000007858B140F27640C2F200000078F7
:1054200028B140F25A70C2F2000000210180308D94
:1054300040F2774100281CBF01383085308DC2F220
:105440000001288540F27940C2F20000007800286F
:105450004FF00100087002D000F0C0F819E040F2EF
:105460000E67C2F2000740F260743988C2F200048D
:1054700020460222FDF7EEFF40F21661C2F2000163
:105480003888098802220844023881B22046FDF794
:10549000E1FF7088012811D1B08BC00704BFA88B31
:1054A0005FEAC07008D040F21660C2F200000088C7
:1054B000002808BFFEF724F9FBF7F2FB40F2784022
:1054C000C2F20000007830B16888222801D001289B
:1054D00001D100F027F8FEF777F840051DD5708D53
:1054E00040F260740130708540F20E66C2F2000630
:1054F0003188C2F20004688520460222FDF7AAFF27
:1055000040F21661C2F20001308809880222084484
:10551000023881B22046FDF79DFF01B0BDE8F040A2
:10552000FBF744BFF0B583B0FEF74EF840F20877C2
:10553000C2F20007B88B40F2C465C007C2F2000592
:1055400004BFA88B5FEAC07009D00020019001A8B9
:105550004FF411610422FDF77DFF019E00E000265B
:1055600040F2DC34C2F200042046FBF767FC40F254
:105570000C60C2F20000018840F21460C2F2000028
:1055800002882046FDF7CEFFB88BC00704BFA88B6A
:105590005FEAC0701FD0002402A84FF411610422FA
:1055A0000294FDF757FF029828B1B0423ABFF14389
:1055B0000844801B00E0002040F27C71C2F2000130
:1055C0000968411A28BF0C466969002E08BF0446C5
:1055D000A14238BF6C6103B0F0BD0000F0B583B0EC
:1055E00040F20875C2F20005A88B40F2C467C007FC
:1055F000C2F2000704BFB88B5FEAC0701BD0002462
:1056000001A84FF4116104220194FDF723FF019ECC
:1056100040F27070C2F20000066040F28040C2F2B8
:1056200000000121017040F27470C2F200000460B9
:10563000FEF766F800E0002640F20E60C2F20000BD
:10564000018840F21660C2F2000040F22044028855
:10565000C2F200042046FDF7FDFE2046FBF734FCB5
:10566000A88BC00704BFB88B5FEAC0701FD00024AE
:1056700002A84FF4116104220294FDF7EBFE029898
:1056800028B1B0423ABFF1430844801B00E000203B
:1056900040F27C71C2F200010968411A28BF0C4631
:1056A0006969002E08BF0446A14238BF6C6103B08F
:1056B000F0BD00007047000070B582B041F2F806FE
:1056C000B04204D1069828B1052002B070BD0B206D
:1056D00002B070BD11B1112002B070BD082A02D90C
:1056E0000F2002B070BD40F27240C2F2000000789C
:1056F0001C461546D0B140F28076C2F200063068F2
:105700004FF41161019001A80422FDF76DFE40F2F3
:105710006C71C2F2000101980B68726898423060A7
:105720003CBF0132C6E90002086008E040F2807028
:10573000C2F200004FF411610822FDF755FE40F25D
:105740006471C2F2000100230B6040F280712A46AE
:105750002046C2F20001FAF764FD002002B070BDDD
:105760002DE9F04F8BB040F28448C2F2000898F85F
:10577000001009B10921A8E2B0F808A00446068883
:10578000CAF34210411E02290AF0E00519D308B1FC
:10579000032836D140F22663C2F20003187885420E
:1057A0002FD1002D58D040F28740217AC2F200005C
:1057B000027801F0100B93454FF0000678D10120DC
:1057C00021E0B4F80A900A954FEA092040EA1A2528
:1057D000AFB23846FFF798F8C0B190F80CB0CDE9F9
:1057E00008674FEA192702465F450695079012D8C9
:1057F00009980AF010033946FFF796F8064600208C
:105800000BE0032000264FF0000C52E20820002697
:105810004FF0000CB6E1112000260A9D5F4516D816
:10582000402D40F0908008990A2940F0AD81711E0A
:10583000032900F2E8814FF0000E214641F80CEFF9
:105840000123B4460122002B40F087802EE2002283
:105850000123B44600217BE040F28749C2F20009EF
:1058600099F800100AF01000884240F0A080012052
:105870004FF0000B002800F0A98140F23C68C2F212
:105880000008D8F8001040F28642C2F2000200265A
:1058900016701E7031B10746084602F031FB3846DB
:1058A000C8F8006040F21C61C2F200010E60AAE775
:1058B00040F25871C2F2000180F800B040F220605E
:1058C00040F21C620988C2F20000C2F20002D2F863
:1058D0000090D0F800C0093919FA81FEACEB090834
:1058E000F44528BF012628BF1FFA81F840F2864000
:1058F00040F23C61C2F20000C2F200010670207A60
:1059000009685FEAC97220810A9540F0EC8031F89D
:10591000092040EA02225FEA5800228100F0F58067
:10592000494404F10A020023002600BF01EB4307AB
:105930007D787F88013645EA072722F81370B3B2D5
:105940009842F3D8E1E00AF0020200210123B446B4
:105950004FF0000E002B00F0A9815F450ED8202DDE
:105960000CD1002A00F0148108990A2940F09E8188
:10597000CAF3810204F10C01C2F1040C0591002369
:105980000AF0100100225F4598BF012303EA111BB2
:105990001FFA89F1B2EB512F014618BF0521BBF167
:1059A000000F18BF084698B30821012280E140F299
:1059B0003C6140F25672C2F20001C2F20002096874
:1059C0001288002989F8000000F03481A2F1090052
:1059D00040F22062C2F20002B446166840F21C6235
:1059E000C2F2000212685FEACA77A6EB020B40F02F
:1059F000518140F28646C2F20006012780B237701C
:105A0000834528BF83464FF00E0088BF0020ADE1DC
:105A1000BEF1000F00F01681059040F28640C2F200
:105A200000000121017040F28740C2F200000170C5
:105A300040F28540C2F2000080F800B040F22460DD
:105A40000699C2F20000018040F22760C2F2000015
:105A5000077040F240600799C2F20000402D40F20A
:105A60003C6501606146C2F200050397CDF810C0A5
:105A700008BF3146286840F22069C2F20009C9F81F
:105A8000001018B102F03CFA00202860D9F800009C
:105A9000013020F0010002F05BFA0028286000F0DD
:105AA0001C810A99402940F02081A946039F079D47
:105AB00084460998394632462B46CDE900CBFEF79D
:105AC000F7FFFF2800F03A82DDF810C0002840F010
:105AD0007582D9F80010059004F110006246FAF7BB
